{"contracts/Lock.sol":{"Lock":{"abi":[{"inputs":[{"internalType":"uint256","name":"_unlockTime","type":"uint256"}],"stateMutability":"payable","type":"constructor"},{"anonymous":false,"inputs":[{"indexed":false,"internalType":"uint256","name":"amount","type":"uint256"},{"indexed":false,"internalType":"uint256","name":"when","type":"uint256"}],"name":"Withdrawal","type":"event"},{"inputs":[],"name":"owner","outputs":[{"internalType":"address payable","name":"","type":"address"}],"stateMutability":"view","type":"function"},{"inputs":[],"name":"unlockTime","outputs":[{"internalType":"uint256","name":"","type":"uint256"}],"stateMutability":"view","type":"function"},{"inputs":[],"name":"withdraw","outputs":[],"stateMutability":"nonpayable","type":"function"}],"evm":{"assembly":"// RO data = 0/0 bytes\n// RW data = 32/66656 bytes\n// Stack size = 16384 bytes\n\n// Instructions = 1898\n// Code size = 5945 bytes\n\n      : @0 (gas: 4)\n     0: a2 = a0\n     2: a3 = a0 >> 16\n     5: a0 = 0x0\n     7: jump @7 if a3 != 0\n      : @1 (gas: 2)\n    10: a3 = 0x10000\n    15: jump @7 if a3 <u a1\n      : @2 (gas: 4)\n    18: i64 a1 = a1 + a2\n    21: a0 = a1 + 0x1f\n    24: a0 = a0 & 0xffffffe0\n    27: jump @4 if a0 <=u 65536\n      : @3 (gas: 2)\n    33: a0 = 0x0\n    35: ret\n      : @4 (gas: 2)\n    37: a1 = i32 [0x20020]\n    42: jump @6 if a1 >=u a0\n      : @5 (gas: 5)\n    45: u32 [0x20020] = a0\n    50: a1 = a0\n    52: a0 = 0x20040\n    57: i64 a0 = a0 + a1\n    60: ret\n      : @6 (gas: 3)\n    62: a0 = 0x20040\n    67: i64 a0 = a0 + a1\n    70: ret\n      : @7 (gas: 1)\n    72: ret\n      : @8 (gas: 1)\n    74: jump @11 if a2 == 0\n      : @9 (gas: 3)\n    77: i64 a2 = a2 + a0\n    80: a3 = a0\n    82: fallthrough\n      : @10 (gas: 6)\n    83: a4 = u8 [a1]\n    85: i64 a1 = i64 a1 + 0x1\n    88: i64 a5 = i64 a3 + 0x1\n    91: u8 [a3] = a4\n    93: a3 = a5\n    95: jump @10 if a5 != a2\n      : @11 (gas: 1)\n    98: ret\n      : @12 (gas: 10)\n   100: i64 sp = i64 sp - i64 32\n   103: u64 [sp + 24] = ra\n   106: u64 [sp + 16] = s0\n   109: u64 [sp + 8] = s1\n   112: i64 s0 = i64 sp + 0x20\n   115: sp = sp & 0xffffffe0\n   118: s1 = a0 & 0x1\n   121: a0 = 0x0\n   123: a1 = 0x0\n   125: ra = 2, jump @0\n      : @13 [@dyn 1] (gas: 7)\n   129: u64 [0x20028] = a0\n   134: u32 [sp + 0] = 1024\n   138: a0 = 0x30040\n   143: a0 = a0 + 0x0\n   145: a1 = sp + 0x0\n   147: ecalli 5 // 'input'\n   149: fallthrough\n      : @14 (gas: 6)\n   150: a0 = u32 [sp]\n   152: u64 [0x30458] = 0\n   157: u64 [0x30450] = 0\n   162: u64 [0x30448] = 0\n   167: u64 [0x30440] = a0\n   172: jump @16 if s1 == 0\n      : @15 (gas: 1)\n   175: ra = 4, jump @17\n      : @16 [@dyn 2] (gas: 1)\n   179: ra = 6, jump @62\n      : @17 [@dyn 3] (gas: 18)\n   184: i64 sp = i64 sp - i64 256\n   188: u64 [sp + 248] = ra\n   192: u64 [sp + 240] = s0\n   196: u64 [sp + 232] = s1\n   200: i64 s0 = i64 sp + 0x100\n   204: sp = sp & 0xffffffe0\n   207: s1 = sp\n   209: a1 = u64 [0x30458]\n   214: u64 [s1 + 48] = a1\n   217: a1 = u64 [0x30450]\n   222: u64 [s1 + 40] = a1\n   225: a1 = u64 [0x30448]\n   230: u64 [s1 + 32] = a1\n   233: a0 = u64 [0x30440]\n   238: u64 [s1 + 56] = a0\n   241: a0 = 0x40\n   244: a1 = 0x20\n   247: ra = 8, jump @0\n      : @18 [@dyn 4] (gas: 1)\n   252: jump @29 if a0 == 0\n      : @19 (gas: 38)\n   256: t0 = u64 [s1 + 56]\n   259: i64 a0 = i64 t0 + 0x1f\n   262: a1 = a0 <u t0\n   265: ra = u64 [s1 + 32]\n   268: i64 a2 = ra + a1\n   271: a3 = a2 <u ra\n   274: a3 = a1 if a1 == 0\n   277: a5 = u64 [s1 + 40]\n   280: i64 a3 = a3 + a5\n   283: a1 = a3 <u a5\n   286: t1 = u64 [s1 + 48]\n   289: i64 t2 = t1 + a1\n   292: a0 = a0 & 0xffffffe0\n   295: i64 a4 = i64 a0 + 0x80\n   299: a0 = a4 <u a0\n   302: i64 a1 = a2 + a0\n   305: a2 = a1 <u a2\n   308: a2 = a0 if a0 == 0\n   311: i64 a2 = a2 + a3\n   314: a0 = a2 <u a3\n   317: i64 a0 = a0 + t2\n   320: t2 = reverse a0\n   322: a0 = reverse a2\n   324: a2 = reverse a1\n   326: a3 = reverse a4\n   328: a4 = 0x20028\n   333: u64 [0x20080] = a3\n   338: u64 [0x20078] = a2\n   343: u64 [0x20070] = a0\n   348: a1 = t0 | a5\n   351: a2 = ra | t1\n   354: a1 = a1 | a2\n   357: a1 = a1 >>64 32\n   360: a2 = a2 | a5\n   363: a2 = a2 <<64 32\n   366: a1 = a1 | a2\n   369: u64 [0x20068] = t2\n   374: jump @29 if a1 != 0\n      : @20 (gas: 5)\n   377: u64 [s1 + 24] = a4\n   380: a1 = i32 [s1 + 56]\n   383: a0 = 0x80\n   387: u64 [s1 + 16] = a1\n   390: ra = 10, jump @0\n      : @21 [@dyn 5] (gas: 1)\n   395: jump @29 if a0 == 0\n      : @22 (gas: 5)\n   398: a0 = u64 [s1 + 24]\n   401: i64 a0 = i64 a0 + 0x80\n   405: a1 = 0x30040\n   410: a2 = u64 [s1 + 16]\n   413: ra = 12, jump @8\n      : @23 [@dyn 6] (gas: 9)\n   418: a0 = u64 [s1 + 56]\n   421: a0 = a0 <u 0x20\n   424: a1 = u64 [s1 + 32]\n   427: a0 = 0 if a1 != 0\n   429: a1 = u64 [s1 + 48]\n   432: a2 = u64 [s1 + 40]\n   435: a1 = a1 | a2\n   438: a0 = 0 if a1 != 0\n   440: jump @27 if a0 == 0\n      : @24 (gas: 3)\n   443: a0 = 0x0\n   445: a1 = 0x0\n   447: ra = 14, jump @0\n      : @25 [@dyn 7] (gas: 1)\n   452: jump @29 if a0 == 0\n      : @26 (gas: 5)\n   455: a1 = i32 [s1 + 24]\n   458: a0 = 0x1\n   461: a2 = 0x0\n   463: ecalli 9 // 'seal_return'\n   465: fallthrough\n      : @27 (gas: 3)\n   466: a0 = 0x80\n   470: a1 = 0x20\n   473: ra = 16, jump @0\n      : @28 [@dyn 8] (gas: 1)\n   478: jump @30 if a0 != 0\n      : @29 (gas: 1)\n   481: trap\n      : @30 (gas: 16)\n   482: a3 = u64 [s1 + 24]\n   485: a0 = u64 [a3 + 152]\n   489: a1 = u64 [a3 + 144]\n   493: a2 = u64 [a3 + 136]\n   497: a3 = u64 [a3 + 128]\n   501: a0 = reverse a0\n   503: u64 [s1 + 48] = a0\n   506: a0 = reverse a1\n   508: u64 [s1 + 40] = a0\n   511: a0 = reverse a2\n   513: u64 [s1 + 56] = a0\n   516: a0 = reverse a3\n   518: u64 [s1 + 32] = a0\n   521: a0 = s1 + 0x40\n   524: ecalli 6 // 'now'\n   526: fallthrough\n      : @31 (gas: 20)\n   527: t2 = u64 [s1 + 32]\n   530: t1 = u64 [s1 + 40]\n   533: t0 = u64 [s1 + 48]\n   536: a0 = u64 [s1 + 88]\n   539: a1 = u64 [s1 + 64]\n   542: ra = u64 [s1 + 80]\n   545: a3 = u64 [s1 + 72]\n   548: a4 = a0 ^ t2\n   551: a0 = a0 <u t2\n   554: a2 = u64 [s1 + 56]\n   557: a5 = ra <u a2\n   560: a5 = a0 if a4 != 0\n   563: a0 = a3 ^ t1\n   566: a3 = a3 <u t1\n   569: a1 = a1 <u t0\n   572: a1 = a3 if a0 != 0\n   575: a0 = ra ^ a2\n   578: a0 = a0 | a4\n   581: a1 = a5 if a0 != 0\n   584: jump @42 if a1 == 0\n      : @32 (gas: 89)\n   588: u64 [s1 + 120] = 0\n   591: u64 [s1 + 112] = 0\n   594: u64 [s1 + 104] = 0\n   597: u64 [s1 + 96] = 0\n   600: i64 a0 = i64 sp - i64 32\n   603: a0 = a0 & 0xffffffe0\n   606: sp = a0\n   608: u64 [a0 + 24] = t2\n   611: u64 [a0 + 16] = a2\n   614: u64 [a0 + 8] = t1\n   617: u64 [a0] = t0\n   619: a3 = a0 + 0x0\n   621: a1 = s1 + 0x60\n   624: a2 = 0xffffffff\n   627: a4 = 0x20\n   630: a0 = 0x0\n   632: ecalli 11 // 'set_storage'\n   634: a0 = s1 + 0x80\n   638: ecalli 2 // 'caller'\n   640: a0 = u64 [s1 + 136]\n   644: a1 = i32 [s1 + 144]\n   648: a2 = u64 [s1 + 128]\n   652: a0 = reverse a0\n   654: a3 = a0 <<64 32\n   657: a1 = reverse a1\n   659: a1 = a1 >>64 32\n   662: a1 = a1 | a3\n   665: u64 [s1 + 56] = a1\n   668: a0 = a0 >>64 32\n   671: a1 = reverse a2\n   673: a2 = a1 <<64 32\n   676: a0 = a0 | a2\n   679: u64 [s1 + 48] = a0\n   682: a1 = a1 >>64 32\n   685: u64 [s1 + 40] = a1\n   688: u64 [s1 + 184] = 0\n   692: u64 [s1 + 176] = 0\n   696: u64 [s1 + 168] = 0\n   700: u64 [s1 + 160] = 1\n   705: i64 a0 = i64 sp - i64 32\n   708: a0 = a0 & 0xffffffe0\n   711: sp = a0\n   713: u64 [a0 + 24] = 0\n   716: u64 [a0 + 16] = 0\n   719: u64 [a0 + 8] = 0\n   722: u64 [a0 + 0] = 0\n   724: a3 = a0\n   726: u64 [s1 + 32] = a0\n   729: i64 a0 = i64 sp - i64 8\n   732: a0 = a0 & 0xffffffe0\n   735: sp = a0\n   737: u64 [a0 + 24] = 0\n   740: u64 [a0 + 16] = 0\n   743: u64 [a0 + 8] = 0\n   746: u64 [a0 + 0] = 256\n   750: a3 = a3 + 0x0\n   752: a4 = a0 + 0x0\n   754: a1 = s1 + 0xa0\n   758: a2 = 0xffffffff\n   761: a0 = 0x0\n   763: ecalli 4 // 'get_storage'\n   765: a1 = u64 [s1 + 32]\n   768: a0 = u32 [a1 + 20]\n   771: a1 = u64 [a1 + 24]\n   774: a0 = a0 <<64 32\n   777: a2 = u64 [s1 + 40]\n   780: a0 = a0 | a2\n   783: u64 [s1 + 216] = 0\n   787: u64 [s1 + 208] = 0\n   791: u64 [s1 + 200] = 0\n   795: u64 [s1 + 192] = 1\n   800: i64 a2 = i64 sp - i64 32\n   803: a2 = a2 & 0xffffffe0\n   806: sp = a2\n   808: u64 [a2 + 24] = a1\n   811: u64 [a2 + 16] = a0\n   814: a0 = u64 [s1 + 48]\n   817: u64 [a2 + 8] = a0\n   820: a0 = u64 [s1 + 56]\n   823: u64 [a2] = a0\n   825: a3 = a2 + 0x0\n   827: a1 = s1 + 0xc0\n   831: a2 = 0xffffffff\n   834: a4 = 0x20\n   837: a0 = 0x0\n   839: ecalli 11 // 'set_storage'\n   841: a0 = 0x40\n   844: a1 = 0x20\n   847: ra = 18, jump @0\n      : @33 [@dyn 9] (gas: 1)\n   852: jump @29 if a0 == 0\n      : @34 (gas: 16)\n   856: a3 = u64 [s1 + 24]\n   859: a0 = u64 [a3 + 72]\n   862: a1 = u64 [a3 + 88]\n   865: a2 = u64 [a3 + 64]\n   868: a3 = u64 [a3 + 80]\n   871: a4 = reverse a0\n   873: a0 = reverse a1\n   875: a1 = a0 | a4\n   878: a2 = a2 | a3\n   881: a2 = reverse a2\n   883: a1 = a1 | a2\n   886: a1 = a1 >>64 32\n   889: a2 = a2 | a4\n   892: a2 = a2 <<64 32\n   895: a1 = a1 | a2\n   898: jump @29 if a1 != 0\n      : @35 (gas: 3)\n   902: a0 = a0 + 0x0\n   904: u64 [s1 + 56] = a0\n   907: ra = 20, jump @0\n      : @36 [@dyn 10] (gas: 1)\n   912: jump @29 if a0 == 0\n      : @37 (gas: 2)\n   916: a1 = i32 [0x20030]\n   921: jump @39 if a1 == 0\n      : @38 (gas: 4)\n   924: a0 = 0x30460\n   929: a0 = a0 + 0x0\n   931: ecalli 10 // 'set_immutable_data'\n   933: fallthrough\n      : @39 (gas: 3)\n   934: a0 = u64 [s1 + 56]\n   937: a1 = 0x0\n   939: ra = 22, jump @0\n      : @40 [@dyn 11] (gas: 1)\n   944: jump @29 if a0 == 0\n      : @41 (gas: 7)\n   948: a0 = u64 [s1 + 24]\n   951: a1 = u64 [s1 + 56]\n   954: a1 = a1 + a0\n   957: a0 = 0x0\n   959: a2 = 0x0\n   961: ecalli 9 // 'seal_return'\n   963: fallthrough\n      : @42 (gas: 3)\n   964: a0 = 0x40\n   967: a1 = 0x20\n   970: ra = 24, jump @0\n      : @43 [@dyn 12] (gas: 1)\n   975: jump @29 if a0 == 0\n      : @44 (gas: 17)\n   979: a3 = u64 [s1 + 24]\n   982: a0 = u64 [a3 + 72]\n   985: a1 = u64 [a3 + 64]\n   988: a2 = u64 [a3 + 80]\n   991: a3 = u64 [a3 + 88]\n   994: a4 = reverse a0\n   996: a5 = reverse a1\n   998: a2 = reverse a2\n  1000: a3 = reverse a3\n  1002: a0 = a2 | a5\n  1005: a1 = a3 | a4\n  1008: a1 = a1 | a0\n  1011: a1 = a1 >>64 32\n  1014: a0 = a0 | a4\n  1017: a0 = a0 <<64 32\n  1020: a0 = a0 | a1\n  1023: jump @29 if a0 != 0\n      : @45 (gas: 8)\n  1027: u64 [s1 + 16] = a5\n  1030: u64 [s1 + 32] = a4\n  1033: u64 [s1 + 56] = a2\n  1036: a0 = a3 + 0x0\n  1038: a1 = 0x20\n  1041: u64 [s1 + 40] = a0\n  1044: u64 [s1 + 48] = a3\n  1047: ra = 26, jump @0\n      : @46 [@dyn 13] (gas: 1)\n  1052: jump @29 if a0 == 0\n      : @47 (gas: 45)\n  1056: a0 = u64 [s1 + 24]\n  1059: a5 = u64 [s1 + 40]\n  1062: i64 a2 = a0 + a5\n  1065: u8 [a2 + 31] = 0\n  1068: u8 [a2 + 30] = 0\n  1071: u8 [a2 + 29] = 0\n  1074: u8 [a2 + 28] = 0\n  1077: u8 [a2 + 27] = 0\n  1080: u8 [a2 + 26] = 0\n  1083: u8 [a2 + 25] = 0\n  1086: u8 [a2 + 24] = 0\n  1089: u8 [a2 + 23] = 0\n  1092: u8 [a2 + 22] = 0\n  1095: u8 [a2 + 21] = 0\n  1098: u8 [a2 + 20] = 0\n  1101: u8 [a2 + 19] = 0\n  1104: u8 [a2 + 18] = 0\n  1107: u8 [a2 + 17] = 0\n  1110: u8 [a2 + 16] = 0\n  1113: u8 [a2 + 15] = 0\n  1116: u8 [a2 + 14] = 0\n  1119: u8 [a2 + 13] = 0\n  1122: u8 [a2 + 12] = 0\n  1125: u8 [a2 + 11] = 0\n  1128: u8 [a2 + 10] = 0\n  1131: u8 [a2 + 9] = 0\n  1134: u8 [a2 + 8] = 0\n  1137: u8 [a2 + 7] = 0\n  1140: u8 [a2 + 6] = 0\n  1143: u8 [a2 + 5] = 0\n  1146: u8 [a2 + 4] = 0\n  1149: u8 [a2 + 3] = 160\n  1154: u8 [a2 + 2] = 121\n  1158: u8 [a2 + 1] = 195\n  1163: a1 = u64 [s1 + 32]\n  1166: a4 = u64 [s1 + 16]\n  1169: a4 = a4 | a1\n  1172: a1 = 0xfffffffc\n  1182: a3 = u64 [s1 + 48]\n  1185: a1 = a3 <u a1\n  1188: a3 = u64 [s1 + 56]\n  1191: a1 = 0 if a3 != 0\n  1193: a1 = 0 if a4 != 0\n  1195: u8 [a2 + 0] = 8\n  1198: jump @29 if a1 == 0\n      : @48 (gas: 6)\n  1202: u64 [s1 + 32] = a4\n  1205: u64 [s1 + 8] = a2\n  1208: a0 = a5 + 0x4\n  1211: a1 = 0x20\n  1214: u64 [s1 + 16] = a0\n  1217: ra = 28, jump @0\n      : @49 [@dyn 14] (gas: 1)\n  1222: jump @29 if a0 == 0\n      : @50 (gas: 43)\n  1226: a0 = u64 [s1 + 24]\n  1229: a1 = u64 [s1 + 16]\n  1232: i64 a0 = a0 + a1\n  1235: u8 [a0 + 31] = 32\n  1239: u8 [a0 + 30] = 0\n  1242: u8 [a0 + 29] = 0\n  1245: u8 [a0 + 28] = 0\n  1248: u8 [a0 + 27] = 0\n  1251: u8 [a0 + 26] = 0\n  1254: u8 [a0 + 25] = 0\n  1257: u8 [a0 + 24] = 0\n  1260: u8 [a0 + 23] = 0\n  1263: u8 [a0 + 22] = 0\n  1266: u8 [a0 + 21] = 0\n  1269: u8 [a0 + 20] = 0\n  1272: u8 [a0 + 19] = 0\n  1275: u8 [a0 + 18] = 0\n  1278: u8 [a0 + 17] = 0\n  1281: u8 [a0 + 16] = 0\n  1284: u8 [a0 + 15] = 0\n  1287: u8 [a0 + 14] = 0\n  1290: u8 [a0 + 13] = 0\n  1293: u8 [a0 + 12] = 0\n  1296: u8 [a0 + 11] = 0\n  1299: u8 [a0 + 10] = 0\n  1302: u8 [a0 + 9] = 0\n  1305: u8 [a0 + 8] = 0\n  1308: u8 [a0 + 7] = 0\n  1311: u8 [a0 + 6] = 0\n  1314: u8 [a0 + 5] = 0\n  1317: u8 [a0 + 4] = 0\n  1320: u8 [a0 + 3] = 0\n  1323: u8 [a0 + 2] = 0\n  1326: u8 [a0 + 1] = 0\n  1329: a1 = 0xffffffdc\n  1339: a2 = u64 [s1 + 48]\n  1342: a1 = a2 <u a1\n  1345: a2 = u64 [s1 + 56]\n  1348: a1 = 0 if a2 != 0\n  1350: a2 = u64 [s1 + 32]\n  1353: a1 = 0 if a2 != 0\n  1355: u8 [a0 + 0] = 0\n  1357: jump @29 if a1 == 0\n      : @51 (gas: 5)\n  1361: a0 = u64 [s1 + 40]\n  1364: a0 = a0 + 0x24\n  1367: a1 = 0x20\n  1370: u64 [s1 + 16] = a0\n  1373: ra = 30, jump @0\n      : @52 [@dyn 15] (gas: 1)\n  1378: jump @29 if a0 == 0\n      : @53 (gas: 43)\n  1382: a0 = u64 [s1 + 24]\n  1385: a1 = u64 [s1 + 16]\n  1388: i64 a0 = a0 + a1\n  1391: u8 [a0 + 31] = 35\n  1395: u8 [a0 + 30] = 0\n  1398: u8 [a0 + 29] = 0\n  1401: u8 [a0 + 28] = 0\n  1404: u8 [a0 + 27] = 0\n  1407: u8 [a0 + 26] = 0\n  1410: u8 [a0 + 25] = 0\n  1413: u8 [a0 + 24] = 0\n  1416: u8 [a0 + 23] = 0\n  1419: u8 [a0 + 22] = 0\n  1422: u8 [a0 + 21] = 0\n  1425: u8 [a0 + 20] = 0\n  1428: u8 [a0 + 19] = 0\n  1431: u8 [a0 + 18] = 0\n  1434: u8 [a0 + 17] = 0\n  1437: u8 [a0 + 16] = 0\n  1440: u8 [a0 + 15] = 0\n  1443: u8 [a0 + 14] = 0\n  1446: u8 [a0 + 13] = 0\n  1449: u8 [a0 + 12] = 0\n  1452: u8 [a0 + 11] = 0\n  1455: u8 [a0 + 10] = 0\n  1458: u8 [a0 + 9] = 0\n  1461: u8 [a0 + 8] = 0\n  1464: u8 [a0 + 7] = 0\n  1467: u8 [a0 + 6] = 0\n  1470: u8 [a0 + 5] = 0\n  1473: u8 [a0 + 4] = 0\n  1476: u8 [a0 + 3] = 0\n  1479: u8 [a0 + 2] = 0\n  1482: u8 [a0 + 1] = 0\n  1485: a1 = 0xffffffbc\n  1495: a2 = u64 [s1 + 48]\n  1498: a1 = a2 <u a1\n  1501: a2 = u64 [s1 + 56]\n  1504: a1 = 0 if a2 != 0\n  1506: a2 = u64 [s1 + 32]\n  1509: a1 = 0 if a2 != 0\n  1511: u8 [a0 + 0] = 0\n  1513: jump @29 if a1 == 0\n      : @54 (gas: 5)\n  1517: a0 = u64 [s1 + 40]\n  1520: a0 = a0 + 0x44\n  1523: a1 = 0x20\n  1526: u64 [s1 + 16] = a0\n  1529: ra = 32, jump @0\n      : @55 [@dyn 16] (gas: 1)\n  1534: jump @29 if a0 == 0\n      : @56 (gas: 43)\n  1538: a0 = u64 [s1 + 24]\n  1541: a1 = u64 [s1 + 16]\n  1544: i64 a0 = a0 + a1\n  1547: u8 [a0 + 29] = 102\n  1551: u8 [a0 + 19] = 98\n  1555: u8 [a0 + 17] = 100\n  1559: u8 [a0 + 30] = 117\n  1563: u8 [a0 + 15] = 117\n  1567: u8 [a0 + 26] = 104\n  1571: u8 [a0 + 13] = 104\n  1575: u8 [a0 + 12] = 115\n  1579: u8 [a0 + 27] = 101\n  1583: u8 [a0 + 20] = 101\n  1587: u8 [a0 + 10] = 101\n  1591: u8 [a0 + 9] = 109\n  1595: u8 [a0 + 22] = 105\n  1599: u8 [a0 + 8] = 105\n  1603: u8 [a0 + 31] = 116\n  1607: u8 [a0 + 25] = 116\n  1611: u8 [a0 + 7] = 116\n  1615: u8 [a0 + 28] = 32\n  1619: u8 [a0 + 24] = 32\n  1623: u8 [a0 + 21] = 32\n  1627: u8 [a0 + 18] = 32\n  1631: u8 [a0 + 11] = 32\n  1635: u8 [a0 + 6] = 32\n  1639: u8 [a0 + 5] = 107\n  1643: u8 [a0 + 4] = 99\n  1647: u8 [a0 + 14] = 111\n  1651: u8 [a0 + 3] = 111\n  1655: u8 [a0 + 16] = 108\n  1659: u8 [a0 + 2] = 108\n  1663: u8 [a0 + 23] = 110\n  1667: u8 [a0 + 1] = 110\n  1671: a1 = 0xffffff9c\n  1681: a2 = u64 [s1 + 48]\n  1684: a1 = a2 <u a1\n  1687: a2 = u64 [s1 + 56]\n  1690: a1 = 0 if a2 != 0\n  1692: a2 = u64 [s1 + 32]\n  1695: a1 = 0 if a2 != 0\n  1697: u8 [a0 + 0] = 85\n  1700: jump @29 if a1 == 0\n      : @57 (gas: 5)\n  1704: a0 = u64 [s1 + 40]\n  1707: a0 = a0 + 0x64\n  1710: a1 = 0x20\n  1713: u64 [s1 + 56] = a0\n  1716: ra = 34, jump @0\n      : @58 [@dyn 17] (gas: 1)\n  1721: jump @29 if a0 == 0\n      : @59 (gas: 38)\n  1725: a0 = u64 [s1 + 24]\n  1728: a1 = u64 [s1 + 56]\n  1731: i64 a0 = a0 + a1\n  1734: u8 [a0 + 31] = 0\n  1737: u8 [a0 + 30] = 0\n  1740: u8 [a0 + 29] = 0\n  1743: u8 [a0 + 28] = 0\n  1746: u8 [a0 + 27] = 0\n  1749: u8 [a0 + 26] = 0\n  1752: u8 [a0 + 25] = 0\n  1755: u8 [a0 + 24] = 0\n  1758: u8 [a0 + 23] = 0\n  1761: u8 [a0 + 22] = 0\n  1764: u8 [a0 + 21] = 0\n  1767: u8 [a0 + 20] = 0\n  1770: u8 [a0 + 19] = 0\n  1773: u8 [a0 + 18] = 0\n  1776: u8 [a0 + 17] = 0\n  1779: u8 [a0 + 16] = 0\n  1782: u8 [a0 + 15] = 0\n  1785: u8 [a0 + 14] = 0\n  1788: u8 [a0 + 13] = 0\n  1791: u8 [a0 + 12] = 0\n  1794: u8 [a0 + 11] = 0\n  1797: u8 [a0 + 10] = 0\n  1800: u8 [a0 + 9] = 0\n  1803: u8 [a0 + 8] = 0\n  1806: u8 [a0 + 7] = 0\n  1809: u8 [a0 + 6] = 0\n  1812: u8 [a0 + 5] = 0\n  1815: u8 [a0 + 4] = 0\n  1818: u8 [a0 + 3] = 0\n  1821: u8 [a0 + 2] = 101\n  1825: u8 [a0 + 1] = 114\n  1829: u8 [a0 + 0] = 117\n  1832: a1 = 0x84\n  1836: a0 = u64 [s1 + 40]\n  1839: ra = 36, jump @0\n      : @60 [@dyn 18] (gas: 1)\n  1844: jump @29 if a0 == 0\n      : @61 (gas: 6)\n  1848: a1 = i32 [s1 + 8]\n  1851: a0 = 0x1\n  1854: a2 = 0x84\n  1858: ra = 0x26\n  1861: ecalli 9 // 'seal_return'\n  1863: fallthrough\n      : @62 [@dyn 19] (gas: 10)\n  1864: i64 sp = i64 sp - i64 640\n  1868: u64 [sp + 632] = ra\n  1872: u64 [sp + 624] = s0\n  1876: u64 [sp + 616] = s1\n  1880: i64 s0 = i64 sp + 0x280\n  1884: sp = sp & 0xffffffe0\n  1887: s1 = sp\n  1889: a0 = 0x40\n  1892: a1 = 0x20\n  1895: ra = 40, jump @0\n      : @63 [@dyn 20] (gas: 1)\n  1900: jump @101 if a0 == 0\n      : @64 (gas: 22)\n  1904: a4 = 0x20028\n  1909: u64 [s1 + 120] = a4\n  1912: u64 [0x20078] = 0\n  1917: u64 [0x20070] = 0\n  1922: u64 [0x20068] = 0\n  1927: t0 = 0x8000000000000000\n  1937: t1 = 0x30440\n  1942: a1 = u64 [0x30448]\n  1947: a2 = u64 [0x30440]\n  1952: a0 = u64 [0x30450]\n  1957: a3 = u64 [0x30458]\n  1962: a5 = a1 >u 0x0\n  1964: a2 = a2 <u 0x4\n  1967: a2 = a2 ^ 0x1\n  1970: a2 = a5 if a1 != 0\n  1973: a1 = a3 >u 0x0\n  1975: a5 = a0 >u 0x0\n  1977: a5 = a1 if a3 != 0\n  1980: a3 = a3 | a0\n  1983: a2 = a5 if a3 != 0\n  1986: u64 [0x20080] = t0\n  1991: jump @99 if a2 == 0\n      : @65 (gas: 4)\n  1995: a0 = u64 [0x30040]\n  2000: a0 = reverse a0\n  2002: a0 = a0 >>a64 32\n  2005: jump @96 if a0 == 2376452955\n      : @66 (gas: 1)\n  2013: jump @76 if a0 == 1020253707\n      : @67 (gas: 1)\n  2021: jump @99 if a0 != 622598819\n      : @68 (gas: 12)\n  2029: u64 [s1 + 112] = t1\n  2032: i64 a0 = i64 sp - i64 32\n  2035: a0 = a0 & 0xffffffe0\n  2038: u64 [s1 + 104] = a0\n  2041: sp = a0\n  2043: u64 [a0 + 24] = 0\n  2046: u64 [a0 + 16] = 0\n  2049: u64 [a0 + 8] = 0\n  2052: u64 [a0 + 0] = 0\n  2054: a0 = a0 + 0x0\n  2056: ecalli 12 // 'value_transferred'\n  2058: fallthrough\n      : @69 (gas: 9)\n  2059: a3 = u64 [s1 + 104]\n  2062: a0 = u64 [a3 + 16]\n  2065: a1 = u64 [a3 + 24]\n  2068: a2 = u64 [a3 + 8]\n  2071: a3 = u64 [a3]\n  2073: a1 = a1 | a2\n  2076: a0 = a0 | a3\n  2079: a0 = a0 | a1\n  2082: jump @99 if a0 != 0\n      : @70 (gas: 19)\n  2086: a3 = u64 [s1 + 112]\n  2089: a0 = u64 [a3]\n  2091: a1 = u64 [a3 + 24]\n  2094: a2 = u64 [a3 + 8]\n  2097: a3 = u64 [a3 + 16]\n  2100: i64 a4 = i64 a0 - i64 4\n  2103: a0 = a4 <u a0\n  2106: i64 a4 = a2 + a0\n  2109: i64 a4 = i64 a4 - i64 1\n  2112: a5 = a4 ^ a2\n  2115: a2 = a4 <u a2\n  2118: a2 = a0 if a5 == 0\n  2121: i64 a0 = i64 a3 - i64 1\n  2124: i64 a2 = a2 + a0\n  2127: a0 = a2 <u a0\n  2130: a2 = a3 <u 0x1\n  2133: i64 a1 = i64 a1 - i64 a2\n  2136: i64 a0 = a0 + a1\n  2139: jump @99 if a0 <s 0\n      : @71 (gas: 38)\n  2143: u64 [s1 + 152] = 0\n  2147: u64 [s1 + 144] = 0\n  2151: u64 [s1 + 136] = 0\n  2155: u64 [s1 + 128] = 0\n  2159: i64 a0 = i64 sp - i64 32\n  2162: a0 = a0 & 0xffffffe0\n  2165: sp = a0\n  2167: u64 [a0 + 24] = 0\n  2170: u64 [a0 + 16] = 0\n  2173: u64 [a0 + 8] = 0\n  2176: u64 [a0 + 0] = 0\n  2178: a3 = a0\n  2180: u64 [s1 + 112] = a0\n  2183: i64 a0 = i64 sp - i64 8\n  2186: a0 = a0 & 0xffffffe0\n  2189: sp = a0\n  2191: u64 [a0 + 24] = 0\n  2194: u64 [a0 + 16] = 0\n  2197: u64 [a0 + 8] = 0\n  2200: u64 [a0 + 0] = 256\n  2204: a3 = a3 + 0x0\n  2206: a4 = a0 + 0x0\n  2208: a1 = s1 + 0x80\n  2212: a2 = 0xffffffff\n  2215: a0 = 0x0\n  2217: ecalli 4 // 'get_storage'\n  2219: a0 = u64 [s1 + 112]\n  2222: a1 = u64 [a0 + 24]\n  2225: u64 [s1 + 88] = a1\n  2228: a1 = u64 [a0 + 16]\n  2231: u64 [s1 + 96] = a1\n  2234: a1 = u64 [a0 + 8]\n  2237: u64 [s1 + 104] = a1\n  2240: a0 = u64 [a0]\n  2242: u64 [s1 + 112] = a0\n  2245: a0 = 0x80\n  2249: a1 = 0x20\n  2252: ra = 42, jump @0\n      : @72 [@dyn 21] (gas: 1)\n  2257: jump @101 if a0 == 0\n      : @73 (gas: 16)\n  2261: a0 = u64 [s1 + 88]\n  2264: a0 = reverse a0\n  2266: a1 = u64 [s1 + 96]\n  2269: a1 = reverse a1\n  2271: a2 = u64 [s1 + 104]\n  2274: a2 = reverse a2\n  2276: a3 = u64 [s1 + 112]\n  2279: a3 = reverse a3\n  2281: a4 = u64 [s1 + 120]\n  2284: u64 [a4 + 152] = a3\n  2288: u64 [a4 + 144] = a2\n  2292: u64 [a4 + 136] = a1\n  2296: u64 [a4 + 128] = a0\n  2300: a0 = 0x80\n  2304: a1 = 0x20\n  2307: ra = 44, jump @0\n      : @74 [@dyn 22] (gas: 1)\n  2312: jump @101 if a0 == 0\n      : @75 (gas: 6)\n  2316: a0 = u64 [s1 + 120]\n  2319: a1 = a0 + 0x80\n  2323: a2 = 0x20\n  2326: a0 = 0x0\n  2328: ecalli 9 // 'seal_return'\n  2330: fallthrough\n      : @76 (gas: 12)\n  2331: u64 [s1 + 112] = t1\n  2334: i64 a0 = i64 sp - i64 32\n  2337: a0 = a0 & 0xffffffe0\n  2340: u64 [s1 + 104] = a0\n  2343: sp = a0\n  2345: u64 [a0 + 24] = 0\n  2348: u64 [a0 + 16] = 0\n  2351: u64 [a0 + 8] = 0\n  2354: u64 [a0 + 0] = 0\n  2356: a0 = a0 + 0x0\n  2358: ecalli 12 // 'value_transferred'\n  2360: fallthrough\n      : @77 (gas: 9)\n  2361: a3 = u64 [s1 + 104]\n  2364: a0 = u64 [a3 + 16]\n  2367: a1 = u64 [a3 + 24]\n  2370: a2 = u64 [a3 + 8]\n  2373: a3 = u64 [a3]\n  2375: a1 = a1 | a2\n  2378: a0 = a0 | a3\n  2381: a0 = a0 | a1\n  2384: jump @99 if a0 != 0\n      : @78 (gas: 19)\n  2388: a3 = u64 [s1 + 112]\n  2391: a0 = u64 [a3]\n  2393: a1 = u64 [a3 + 24]\n  2396: a2 = u64 [a3 + 8]\n  2399: a3 = u64 [a3 + 16]\n  2402: i64 a4 = i64 a0 - i64 4\n  2405: a0 = a4 <u a0\n  2408: i64 a4 = a2 + a0\n  2411: i64 a4 = i64 a4 - i64 1\n  2414: a5 = a4 ^ a2\n  2417: a2 = a4 <u a2\n  2420: a2 = a0 if a5 == 0\n  2423: i64 a0 = i64 a3 - i64 1\n  2426: i64 a2 = a2 + a0\n  2429: a0 = a2 <u a0\n  2432: a2 = a3 <u 0x1\n  2435: i64 a1 = i64 a1 - i64 a2\n  2438: i64 a0 = a0 + a1\n  2441: jump @99 if a0 <s 0\n      : @79 (gas: 38)\n  2445: u64 [s1 + 184] = 0\n  2449: u64 [s1 + 176] = 0\n  2453: u64 [s1 + 168] = 0\n  2457: u64 [s1 + 160] = 0\n  2461: i64 a0 = i64 sp - i64 32\n  2464: a0 = a0 & 0xffffffe0\n  2467: sp = a0\n  2469: u64 [a0 + 24] = 0\n  2472: u64 [a0 + 16] = 0\n  2475: u64 [a0 + 8] = 0\n  2478: u64 [a0 + 0] = 0\n  2480: a3 = a0\n  2482: u64 [s1 + 88] = a0\n  2485: i64 a0 = i64 sp - i64 8\n  2488: a0 = a0 & 0xffffffe0\n  2491: sp = a0\n  2493: u64 [a0 + 24] = 0\n  2496: u64 [a0 + 16] = 0\n  2499: u64 [a0 + 8] = 0\n  2502: u64 [a0 + 0] = 256\n  2506: a3 = a3 + 0x0\n  2508: a4 = a0 + 0x0\n  2510: a1 = s1 + 0xa0\n  2514: a2 = 0xffffffff\n  2517: a0 = 0x0\n  2519: ecalli 4 // 'get_storage'\n  2521: a0 = u64 [s1 + 88]\n  2524: a1 = u64 [a0]\n  2526: u64 [s1 + 112] = a1\n  2529: a1 = u64 [a0 + 8]\n  2532: u64 [s1 + 104] = a1\n  2535: a1 = u64 [a0 + 16]\n  2538: u64 [s1 + 96] = a1\n  2541: a0 = u64 [a0 + 24]\n  2544: u64 [s1 + 88] = a0\n  2547: a0 = s1 + 0xc0\n  2551: ecalli 6 // 'now'\n  2553: fallthrough\n      : @80 (gas: 20)\n  2554: a0 = u64 [s1 + 216]\n  2558: t0 = u64 [s1 + 192]\n  2562: a2 = u64 [s1 + 208]\n  2566: a3 = u64 [s1 + 200]\n  2570: a1 = u64 [s1 + 88]\n  2573: a4 = a0 ^ a1\n  2576: a1 = a0 <u a1\n  2579: a0 = u64 [s1 + 96]\n  2582: a5 = a2 <u a0\n  2585: a5 = a1 if a4 != 0\n  2588: a1 = u64 [s1 + 104]\n  2591: t1 = a3 ^ a1\n  2594: a3 = a3 <u a1\n  2597: a1 = u64 [s1 + 112]\n  2600: a1 = t0 <u a1\n  2603: a1 = a3 if t1 != 0\n  2606: a0 = a0 ^ a2\n  2609: a0 = a0 | a4\n  2612: a1 = a5 if a0 != 0\n  2615: jump @110 if a1 == 0\n      : @81 (gas: 3)\n  2619: a0 = 0x40\n  2622: a1 = 0x20\n  2625: ra = 46, jump @0\n      : @82 [@dyn 23] (gas: 1)\n  2630: jump @101 if a0 == 0\n      : @83 (gas: 17)\n  2634: a3 = u64 [s1 + 120]\n  2637: a0 = u64 [a3 + 72]\n  2640: a1 = u64 [a3 + 64]\n  2643: a2 = u64 [a3 + 80]\n  2646: a3 = u64 [a3 + 88]\n  2649: a4 = reverse a0\n  2651: a5 = reverse a1\n  2653: a2 = reverse a2\n  2655: a3 = reverse a3\n  2657: a0 = a2 | a5\n  2660: a1 = a3 | a4\n  2663: a1 = a1 | a0\n  2666: a1 = a1 >>64 32\n  2669: a0 = a0 | a4\n  2672: a0 = a0 <<64 32\n  2675: a0 = a0 | a1\n  2678: jump @101 if a0 != 0\n      : @84 (gas: 8)\n  2682: u64 [s1 + 80] = a5\n  2685: u64 [s1 + 88] = a4\n  2688: u64 [s1 + 112] = a2\n  2691: a0 = a3 + 0x0\n  2693: a1 = 0x20\n  2696: u64 [s1 + 96] = a0\n  2699: u64 [s1 + 104] = a3\n  2702: ra = 48, jump @0\n      : @85 [@dyn 24] (gas: 1)\n  2707: jump @101 if a0 == 0\n      : @86 (gas: 45)\n  2711: a0 = u64 [s1 + 120]\n  2714: a5 = u64 [s1 + 96]\n  2717: i64 a2 = a0 + a5\n  2720: u8 [a2 + 31] = 0\n  2723: u8 [a2 + 30] = 0\n  2726: u8 [a2 + 29] = 0\n  2729: u8 [a2 + 28] = 0\n  2732: u8 [a2 + 27] = 0\n  2735: u8 [a2 + 26] = 0\n  2738: u8 [a2 + 25] = 0\n  2741: u8 [a2 + 24] = 0\n  2744: u8 [a2 + 23] = 0\n  2747: u8 [a2 + 22] = 0\n  2750: u8 [a2 + 21] = 0\n  2753: u8 [a2 + 20] = 0\n  2756: u8 [a2 + 19] = 0\n  2759: u8 [a2 + 18] = 0\n  2762: u8 [a2 + 17] = 0\n  2765: u8 [a2 + 16] = 0\n  2768: u8 [a2 + 15] = 0\n  2771: u8 [a2 + 14] = 0\n  2774: u8 [a2 + 13] = 0\n  2777: u8 [a2 + 12] = 0\n  2780: u8 [a2 + 11] = 0\n  2783: u8 [a2 + 10] = 0\n  2786: u8 [a2 + 9] = 0\n  2789: u8 [a2 + 8] = 0\n  2792: u8 [a2 + 7] = 0\n  2795: u8 [a2 + 6] = 0\n  2798: u8 [a2 + 5] = 0\n  2801: u8 [a2 + 4] = 0\n  2804: u8 [a2 + 3] = 160\n  2809: u8 [a2 + 2] = 121\n  2813: u8 [a2 + 1] = 195\n  2818: a1 = u64 [s1 + 88]\n  2821: a4 = u64 [s1 + 80]\n  2824: a4 = a4 | a1\n  2827: a1 = 0xfffffffc\n  2837: a3 = u64 [s1 + 104]\n  2840: a1 = a3 <u a1\n  2843: a3 = u64 [s1 + 112]\n  2846: a1 = 0 if a3 != 0\n  2848: a1 = 0 if a4 != 0\n  2850: u8 [a2 + 0] = 8\n  2853: jump @101 if a1 == 0\n      : @87 (gas: 6)\n  2857: u64 [s1 + 88] = a4\n  2860: u64 [s1 + 72] = a2\n  2863: a0 = a5 + 0x4\n  2866: a1 = 0x20\n  2869: u64 [s1 + 80] = a0\n  2872: ra = 50, jump @0\n      : @88 [@dyn 25] (gas: 1)\n  2877: jump @101 if a0 == 0\n      : @89 (gas: 43)\n  2881: a0 = u64 [s1 + 120]\n  2884: a1 = u64 [s1 + 80]\n  2887: i64 a0 = a0 + a1\n  2890: u8 [a0 + 31] = 32\n  2894: u8 [a0 + 30] = 0\n  2897: u8 [a0 + 29] = 0\n  2900: u8 [a0 + 28] = 0\n  2903: u8 [a0 + 27] = 0\n  2906: u8 [a0 + 26] = 0\n  2909: u8 [a0 + 25] = 0\n  2912: u8 [a0 + 24] = 0\n  2915: u8 [a0 + 23] = 0\n  2918: u8 [a0 + 22] = 0\n  2921: u8 [a0 + 21] = 0\n  2924: u8 [a0 + 20] = 0\n  2927: u8 [a0 + 19] = 0\n  2930: u8 [a0 + 18] = 0\n  2933: u8 [a0 + 17] = 0\n  2936: u8 [a0 + 16] = 0\n  2939: u8 [a0 + 15] = 0\n  2942: u8 [a0 + 14] = 0\n  2945: u8 [a0 + 13] = 0\n  2948: u8 [a0 + 12] = 0\n  2951: u8 [a0 + 11] = 0\n  2954: u8 [a0 + 10] = 0\n  2957: u8 [a0 + 9] = 0\n  2960: u8 [a0 + 8] = 0\n  2963: u8 [a0 + 7] = 0\n  2966: u8 [a0 + 6] = 0\n  2969: u8 [a0 + 5] = 0\n  2972: u8 [a0 + 4] = 0\n  2975: u8 [a0 + 3] = 0\n  2978: u8 [a0 + 2] = 0\n  2981: u8 [a0 + 1] = 0\n  2984: a1 = 0xffffffdc\n  2994: a2 = u64 [s1 + 104]\n  2997: a1 = a2 <u a1\n  3000: a2 = u64 [s1 + 112]\n  3003: a1 = 0 if a2 != 0\n  3005: a2 = u64 [s1 + 88]\n  3008: a1 = 0 if a2 != 0\n  3010: u8 [a0 + 0] = 0\n  3012: jump @101 if a1 == 0\n      : @90 (gas: 5)\n  3016: a0 = u64 [s1 + 96]\n  3019: a0 = a0 + 0x24\n  3022: a1 = 0x20\n  3025: u64 [s1 + 80] = a0\n  3028: ra = 52, jump @0\n      : @91 [@dyn 26] (gas: 1)\n  3033: jump @101 if a0 == 0\n      : @92 (gas: 43)\n  3037: a0 = u64 [s1 + 120]\n  3040: a1 = u64 [s1 + 80]\n  3043: i64 a0 = a0 + a1\n  3046: u8 [a0 + 31] = 22\n  3050: u8 [a0 + 30] = 0\n  3053: u8 [a0 + 29] = 0\n  3056: u8 [a0 + 28] = 0\n  3059: u8 [a0 + 27] = 0\n  3062: u8 [a0 + 26] = 0\n  3065: u8 [a0 + 25] = 0\n  3068: u8 [a0 + 24] = 0\n  3071: u8 [a0 + 23] = 0\n  3074: u8 [a0 + 22] = 0\n  3077: u8 [a0 + 21] = 0\n  3080: u8 [a0 + 20] = 0\n  3083: u8 [a0 + 19] = 0\n  3086: u8 [a0 + 18] = 0\n  3089: u8 [a0 + 17] = 0\n  3092: u8 [a0 + 16] = 0\n  3095: u8 [a0 + 15] = 0\n  3098: u8 [a0 + 14] = 0\n  3101: u8 [a0 + 13] = 0\n  3104: u8 [a0 + 12] = 0\n  3107: u8 [a0 + 11] = 0\n  3110: u8 [a0 + 10] = 0\n  3113: u8 [a0 + 9] = 0\n  3116: u8 [a0 + 8] = 0\n  3119: u8 [a0 + 7] = 0\n  3122: u8 [a0 + 6] = 0\n  3125: u8 [a0 + 5] = 0\n  3128: u8 [a0 + 4] = 0\n  3131: u8 [a0 + 3] = 0\n  3134: u8 [a0 + 2] = 0\n  3137: u8 [a0 + 1] = 0\n  3140: a1 = 0xffffffbc\n  3150: a2 = u64 [s1 + 104]\n  3153: a1 = a2 <u a1\n  3156: a2 = u64 [s1 + 112]\n  3159: a1 = 0 if a2 != 0\n  3161: a2 = u64 [s1 + 88]\n  3164: a1 = 0 if a2 != 0\n  3166: u8 [a0 + 0] = 0\n  3168: jump @101 if a1 == 0\n      : @93 (gas: 5)\n  3172: a0 = u64 [s1 + 96]\n  3175: a0 = a0 + 0x44\n  3178: a1 = 0x20\n  3181: u64 [s1 + 112] = a0\n  3184: ra = 54, jump @0\n      : @94 [@dyn 27] (gas: 1)\n  3189: jump @101 if a0 == 0\n      : @95 (gas: 37)\n  3193: a0 = u64 [s1 + 120]\n  3196: a1 = u64 [s1 + 112]\n  3199: i64 a0 = a0 + a1\n  3202: u8 [a0 + 31] = 0\n  3205: u8 [a0 + 30] = 0\n  3208: u8 [a0 + 29] = 0\n  3211: u8 [a0 + 28] = 0\n  3214: u8 [a0 + 27] = 0\n  3217: u8 [a0 + 26] = 0\n  3220: u8 [a0 + 25] = 0\n  3223: u8 [a0 + 24] = 0\n  3226: u8 [a0 + 23] = 0\n  3229: u8 [a0 + 22] = 0\n  3232: u8 [a0 + 21] = 116\n  3236: u8 [a0 + 20] = 101\n  3240: u8 [a0 + 19] = 121\n  3244: a5 = 0x20\n  3247: u8 [a0 + 18] = a5\n  3250: u8 [a0 + 17] = 119\n  3254: u8 [a0 + 16] = 97\n  3258: u8 [a0 + 15] = 114\n  3262: u8 [a0 + 14] = 100\n  3266: u8 [a0 + 13] = 104\n  3270: u8 [a0 + 12] = 116\n  3274: a4 = 0x69\n  3277: u8 [a0 + 11] = a4\n  3280: u8 [a0 + 10] = 119\n  3284: u8 [a0 + 9] = a5\n  3287: u8 [a0 + 8] = 116\n  3291: u8 [a0 + 7] = 39\n  3295: u8 [a0 + 6] = 110\n  3299: u8 [a0 + 5] = 97\n  3303: u8 [a0 + 4] = 99\n  3307: u8 [a0 + 3] = a5\n  3310: u8 [a0 + 2] = 117\n  3314: u8 [a0 + 1] = 111\n  3318: jump @147\n      : @96 (gas: 12)\n  3321: u64 [s1 + 112] = t1\n  3324: i64 a0 = i64 sp - i64 32\n  3327: a0 = a0 & 0xffffffe0\n  3330: u64 [s1 + 104] = a0\n  3333: sp = a0\n  3335: u64 [a0 + 24] = 0\n  3338: u64 [a0 + 16] = 0\n  3341: u64 [a0 + 8] = 0\n  3344: u64 [a0 + 0] = 0\n  3346: a0 = a0 + 0x0\n  3348: ecalli 12 // 'value_transferred'\n  3350: fallthrough\n      : @97 (gas: 9)\n  3351: a3 = u64 [s1 + 104]\n  3354: a0 = u64 [a3 + 16]\n  3357: a1 = u64 [a3 + 24]\n  3360: a2 = u64 [a3 + 8]\n  3363: a3 = u64 [a3]\n  3365: a1 = a1 | a2\n  3368: a0 = a0 | a3\n  3371: a0 = a0 | a1\n  3374: jump @99 if a0 != 0\n      : @98 (gas: 19)\n  3377: a3 = u64 [s1 + 112]\n  3380: a0 = u64 [a3]\n  3382: a1 = u64 [a3 + 24]\n  3385: a2 = u64 [a3 + 8]\n  3388: a3 = u64 [a3 + 16]\n  3391: i64 a4 = i64 a0 - i64 4\n  3394: a0 = a4 <u a0\n  3397: i64 a4 = a2 + a0\n  3400: i64 a4 = i64 a4 - i64 1\n  3403: a5 = a4 ^ a2\n  3406: a2 = a4 <u a2\n  3409: a2 = a0 if a5 == 0\n  3412: i64 a0 = i64 a3 - i64 1\n  3415: i64 a2 = a2 + a0\n  3418: a0 = a2 <u a0\n  3421: a2 = a3 <u 0x1\n  3424: i64 a1 = i64 a1 - i64 a2\n  3427: i64 a0 = a0 + a1\n  3430: jump @102 if a0 >=s 0\n      : @99 (gas: 3)\n  3433: a0 = 0x0\n  3435: a1 = 0x0\n  3437: ra = 56, jump @0\n      : @100 [@dyn 28] (gas: 1)\n  3442: jump @164 if a0 != 0\n      : @101 (gas: 1)\n  3446: trap\n      : @102 (gas: 36)\n  3447: u64 [s1 + 600] = 0\n  3451: u64 [s1 + 592] = 0\n  3455: u64 [s1 + 584] = 0\n  3459: u64 [s1 + 576] = 1\n  3464: i64 a0 = i64 sp - i64 32\n  3467: a0 = a0 & 0xffffffe0\n  3470: sp = a0\n  3472: u64 [a0 + 24] = 0\n  3475: u64 [a0 + 16] = 0\n  3478: u64 [a0 + 8] = 0\n  3481: u64 [a0 + 0] = 0\n  3483: a3 = a0\n  3485: u64 [s1 + 112] = a0\n  3488: i64 a0 = i64 sp - i64 8\n  3491: a0 = a0 & 0xffffffe0\n  3494: sp = a0\n  3496: u64 [a0 + 24] = 0\n  3499: u64 [a0 + 16] = 0\n  3502: u64 [a0 + 8] = 0\n  3505: u64 [a0 + 0] = 256\n  3509: a3 = a3 + 0x0\n  3511: a4 = a0 + 0x0\n  3513: a1 = s1 + 0x240\n  3517: a2 = 0xffffffff\n  3520: a0 = 0x0\n  3522: ecalli 4 // 'get_storage'\n  3524: a1 = u64 [s1 + 112]\n  3527: a0 = u32 [a1 + 16]\n  3530: u64 [s1 + 96] = a0\n  3533: a0 = u64 [a1 + 8]\n  3536: u64 [s1 + 104] = a0\n  3539: a0 = u64 [a1]\n  3541: u64 [s1 + 112] = a0\n  3544: a0 = 0x40\n  3547: a1 = 0x20\n  3550: ra = 58, jump @0\n      : @103 [@dyn 29] (gas: 1)\n  3555: jump @101 if a0 == 0\n      : @104 (gas: 16)\n  3558: a3 = u64 [s1 + 120]\n  3561: a0 = u64 [a3 + 72]\n  3564: a1 = u64 [a3 + 88]\n  3567: a2 = u64 [a3 + 64]\n  3570: a3 = u64 [a3 + 80]\n  3573: a4 = reverse a0\n  3575: a0 = reverse a1\n  3577: a1 = a0 | a4\n  3580: a2 = a2 | a3\n  3583: a2 = reverse a2\n  3585: a1 = a1 | a2\n  3588: a1 = a1 >>64 32\n  3591: a2 = a2 | a4\n  3594: a2 = a2 <<64 32\n  3597: a1 = a1 | a2\n  3600: jump @101 if a1 != 0\n      : @105 (gas: 4)\n  3604: a0 = a0 + 0x0\n  3606: a1 = 0x20\n  3609: u64 [s1 + 88] = a0\n  3612: ra = 60, jump @0\n      : @106 [@dyn 30] (gas: 1)\n  3617: jump @101 if a0 == 0\n      : @107 (gas: 63)\n  3621: a0 = u64 [s1 + 120]\n  3624: a4 = u64 [s1 + 88]\n  3627: i64 a5 = a0 + a4\n  3630: a0 = u64 [s1 + 96]\n  3633: a0 = reverse a0\n  3635: a1 = u64 [s1 + 104]\n  3638: a1 = reverse a1\n  3640: a2 = u64 [s1 + 112]\n  3643: a2 = reverse a2\n  3645: u8 [a5 + 24] = a2\n  3648: u8 [a5 + 11] = 0\n  3651: u8 [a5 + 10] = 0\n  3654: u8 [a5 + 9] = 0\n  3657: u8 [a5 + 7] = 0\n  3660: u8 [a5 + 6] = 0\n  3663: u8 [a5 + 5] = 0\n  3666: u8 [a5 + 4] = 0\n  3669: u8 [a5 + 3] = 0\n  3672: u8 [a5 + 2] = 0\n  3675: u8 [a5 + 1] = 0\n  3678: u8 [a5 + 0] = 0\n  3680: a3 = a2 >>64 56\n  3683: u8 [a5 + 31] = a3\n  3686: a3 = a2 >>64 48\n  3689: u8 [a5 + 30] = a3\n  3692: a3 = a2 >>64 40\n  3695: u8 [a5 + 29] = a3\n  3698: a3 = a2 >>64 32\n  3701: u8 [a5 + 28] = a3\n  3704: a3 = a2 >>64 24\n  3707: u8 [a5 + 27] = a3\n  3710: a3 = a2 >>64 16\n  3713: u8 [a5 + 26] = a3\n  3716: a2 = a2 >>64 8\n  3719: u8 [a5 + 25] = a2\n  3722: u8 [a5 + 16] = a1\n  3725: a2 = a1 >>64 56\n  3728: u8 [a5 + 23] = a2\n  3731: a2 = a1 >>64 48\n  3734: u8 [a5 + 22] = a2\n  3737: a2 = a1 >>64 40\n  3740: u8 [a5 + 21] = a2\n  3743: a2 = a1 >>64 32\n  3746: u8 [a5 + 20] = a2\n  3749: a2 = a1 >>64 24\n  3752: u8 [a5 + 19] = a2\n  3755: a2 = a1 >>64 16\n  3758: u8 [a5 + 18] = a2\n  3761: a1 = a1 >>64 8\n  3764: u8 [a5 + 17] = a1\n  3767: u8 [a5 + 8] = a0\n  3770: a1 = a0 >>64 56\n  3773: u8 [a5 + 15] = a1\n  3776: a1 = a0 >>64 48\n  3779: u8 [a5 + 14] = a1\n  3782: a1 = a0 >>64 40\n  3785: u8 [a5 + 13] = a1\n  3788: a0 = a0 >>64 32\n  3791: u64 [s1 + 120] = a5\n  3794: u8 [a5 + 12] = a0\n  3797: a1 = 0x20\n  3800: a0 = a4\n  3802: ra = 62, jump @0\n      : @108 [@dyn 31] (gas: 1)\n  3807: jump @101 if a0 == 0\n      : @109 (gas: 5)\n  3811: a1 = i32 [s1 + 120]\n  3814: a2 = 0x20\n  3817: a0 = 0x0\n  3819: ecalli 9 // 'seal_return'\n  3821: fallthrough\n      : @110 (gas: 36)\n  3822: u64 [s1 + 248] = 0\n  3826: u64 [s1 + 240] = 0\n  3830: u64 [s1 + 232] = 0\n  3834: u64 [s1 + 224] = 1\n  3839: i64 a0 = i64 sp - i64 32\n  3842: a0 = a0 & 0xffffffe0\n  3845: sp = a0\n  3847: u64 [a0 + 24] = 0\n  3850: u64 [a0 + 16] = 0\n  3853: u64 [a0 + 8] = 0\n  3856: u64 [a0 + 0] = 0\n  3858: a3 = a0\n  3860: u64 [s1 + 96] = a0\n  3863: i64 a0 = i64 sp - i64 8\n  3866: a0 = a0 & 0xffffffe0\n  3869: sp = a0\n  3871: u64 [a0 + 24] = 0\n  3874: u64 [a0 + 16] = 0\n  3877: u64 [a0 + 8] = 0\n  3880: u64 [a0 + 0] = 256\n  3884: a3 = a3 + 0x0\n  3886: a4 = a0 + 0x0\n  3888: a1 = s1 + 0xe0\n  3892: a2 = 0xffffffff\n  3895: a0 = 0x0\n  3897: ecalli 4 // 'get_storage'\n  3899: a0 = u64 [s1 + 96]\n  3902: a1 = u64 [a0 + 8]\n  3905: u64 [s1 + 112] = a1\n  3908: a1 = u64 [a0]\n  3910: u64 [s1 + 104] = a1\n  3913: a0 = u32 [a0 + 16]\n  3916: u64 [s1 + 96] = a0\n  3919: a0 = s1 + 0x100\n  3923: ecalli 2 // 'caller'\n  3925: fallthrough\n      : @111 (gas: 22)\n  3926: t0 = u64 [s1 + 264]\n  3930: a4 = u64 [s1 + 256]\n  3934: a5 = u32 [s1 + 272]\n  3938: a0 = reverse t0\n  3940: a1 = a0 >>64 32\n  3943: a2 = reverse a4\n  3945: a3 = a2 <<64 32\n  3948: a1 = a1 | a3\n  3951: a0 = a0 <<64 32\n  3954: a3 = reverse a5\n  3956: a3 = a3 >>64 32\n  3959: a0 = a0 | a3\n  3962: a2 = a2 >>64 32\n  3965: a3 = u64 [s1 + 96]\n  3968: a2 = a2 ^ a3\n  3971: a3 = u64 [s1 + 104]\n  3974: a0 = a0 ^ a3\n  3977: a0 = a0 | a2\n  3980: a2 = u64 [s1 + 112]\n  3983: a1 = a1 ^ a2\n  3986: a0 = a0 | a1\n  3989: jump @132 if a0 != 0\n      : @112 (gas: 21)\n  3993: u64 [s1 + 64] = a5\n  3996: u64 [s1 + 72] = t0\n  3999: u64 [s1 + 80] = a4\n  4002: i64 a0 = i64 sp - i64 32\n  4005: a0 = a0 & 0xffffffe0\n  4008: u64 [s1 + 112] = a0\n  4011: sp = a0\n  4013: a0 = a0 + 0x0\n  4015: ecalli 0 // 'balance'\n  4016: a1 = u64 [s1 + 112]\n  4019: a0 = u64 [a1 + 24]\n  4022: u64 [s1 + 88] = a0\n  4025: a0 = u64 [a1 + 16]\n  4028: u64 [s1 + 96] = a0\n  4031: a0 = u64 [a1 + 8]\n  4034: u64 [s1 + 104] = a0\n  4037: a0 = u64 [a1]\n  4039: u64 [s1 + 112] = a0\n  4042: a0 = 0x40\n  4045: a1 = 0x20\n  4048: ra = 64, jump @0\n      : @113 [@dyn 32] (gas: 1)\n  4053: jump @101 if a0 == 0\n      : @114 (gas: 17)\n  4057: a3 = u64 [s1 + 120]\n  4060: a0 = u64 [a3 + 72]\n  4063: a1 = u64 [a3 + 64]\n  4066: a2 = u64 [a3 + 80]\n  4069: a3 = u64 [a3 + 88]\n  4072: a4 = reverse a0\n  4074: a5 = reverse a1\n  4076: a2 = reverse a2\n  4078: a3 = reverse a3\n  4080: a0 = a2 | a5\n  4083: a1 = a3 | a4\n  4086: a1 = a1 | a0\n  4089: a1 = a1 >>64 32\n  4092: a0 = a0 | a4\n  4095: a0 = a0 <<64 32\n  4098: a0 = a0 | a1\n  4101: jump @101 if a0 != 0\n      : @115 (gas: 8)\n  4105: u64 [s1 + 24] = a5\n  4108: u64 [s1 + 32] = a4\n  4111: u64 [s1 + 48] = a2\n  4114: u64 [s1 + 40] = a3\n  4117: a0 = a3 + 0x0\n  4119: a1 = 0x20\n  4122: u64 [s1 + 56] = a0\n  4125: ra = 66, jump @0\n      : @116 [@dyn 33] (gas: 1)\n  4130: jump @101 if a0 == 0\n      : @117 (gas: 75)\n  4134: a0 = u64 [s1 + 120]\n  4137: a5 = u64 [s1 + 56]\n  4140: i64 a5 = a5 + a0\n  4143: a0 = u64 [s1 + 88]\n  4146: a0 = reverse a0\n  4148: a1 = u64 [s1 + 96]\n  4151: a1 = reverse a1\n  4153: a2 = u64 [s1 + 104]\n  4156: a2 = reverse a2\n  4158: a3 = u64 [s1 + 112]\n  4161: a3 = reverse a3\n  4163: u8 [a5 + 24] = a3\n  4166: a4 = a3 >>64 56\n  4169: u8 [a5 + 31] = a4\n  4172: a4 = a3 >>64 48\n  4175: u8 [a5 + 30] = a4\n  4178: a4 = a3 >>64 40\n  4181: u8 [a5 + 29] = a4\n  4184: a4 = a3 >>64 32\n  4187: u8 [a5 + 28] = a4\n  4190: a4 = a3 >>64 24\n  4193: u8 [a5 + 27] = a4\n  4196: a4 = a3 >>64 16\n  4199: u8 [a5 + 26] = a4\n  4202: a3 = a3 >>64 8\n  4205: u8 [a5 + 25] = a3\n  4208: u8 [a5 + 16] = a2\n  4211: a3 = a2 >>64 56\n  4214: u8 [a5 + 23] = a3\n  4217: a3 = a2 >>64 48\n  4220: u8 [a5 + 22] = a3\n  4223: a3 = a2 >>64 40\n  4226: u8 [a5 + 21] = a3\n  4229: a3 = a2 >>64 32\n  4232: u8 [a5 + 20] = a3\n  4235: a3 = a2 >>64 24\n  4238: u8 [a5 + 19] = a3\n  4241: a3 = a2 >>64 16\n  4244: u8 [a5 + 18] = a3\n  4247: a2 = a2 >>64 8\n  4250: u8 [a5 + 17] = a2\n  4253: u8 [a5 + 8] = a1\n  4256: a2 = a1 >>64 56\n  4259: u8 [a5 + 15] = a2\n  4262: a2 = a1 >>64 48\n  4265: u8 [a5 + 14] = a2\n  4268: a2 = a1 >>64 40\n  4271: u8 [a5 + 13] = a2\n  4274: a2 = a1 >>64 32\n  4277: u8 [a5 + 12] = a2\n  4280: a2 = a1 >>64 24\n  4283: u8 [a5 + 11] = a2\n  4286: a2 = a1 >>64 16\n  4289: u8 [a5 + 10] = a2\n  4292: a1 = a1 >>64 8\n  4295: u8 [a5 + 9] = a1\n  4298: u8 [a5] = a0\n  4300: a1 = a0 >>64 56\n  4303: u8 [a5 + 7] = a1\n  4306: a1 = a0 >>64 48\n  4309: u8 [a5 + 6] = a1\n  4312: a1 = a0 >>64 40\n  4315: u8 [a5 + 5] = a1\n  4318: a1 = a0 >>64 32\n  4321: u8 [a5 + 4] = a1\n  4324: a1 = a0 >>64 24\n  4327: u8 [a5 + 3] = a1\n  4330: a1 = a0 >>64 16\n  4333: u8 [a5 + 2] = a1\n  4336: a0 = a0 >>64 8\n  4339: u64 [s1 + 112] = a5\n  4342: u8 [a5 + 1] = a0\n  4345: a0 = s1 + 0x120\n  4349: ecalli 6 // 'now'\n  4351: fallthrough\n      : @118 (gas: 10)\n  4352: a0 = u64 [s1 + 32]\n  4355: a1 = u64 [s1 + 24]\n  4358: a0 = a0 | a1\n  4361: a1 = 0xffffffe0\n  4371: a2 = u64 [s1 + 40]\n  4374: a1 = a2 <u a1\n  4377: a2 = u64 [s1 + 48]\n  4380: a1 = 0 if a2 != 0\n  4382: a1 = 0 if a0 != 0\n  4384: jump @101 if a1 == 0\n      : @119 (gas: 13)\n  4388: a0 = u64 [s1 + 312]\n  4392: u64 [s1 + 48] = a0\n  4395: a0 = u64 [s1 + 304]\n  4399: u64 [s1 + 88] = a0\n  4402: a0 = u64 [s1 + 296]\n  4406: u64 [s1 + 96] = a0\n  4409: a0 = u64 [s1 + 288]\n  4413: u64 [s1 + 104] = a0\n  4416: a0 = u64 [s1 + 56]\n  4419: a0 = a0 + 0x20\n  4422: a1 = 0x20\n  4425: u64 [s1 + 40] = a0\n  4428: ra = 68, jump @0\n      : @120 [@dyn 34] (gas: 1)\n  4433: jump @101 if a0 == 0\n      : @121 (gas: 74)\n  4437: a0 = u64 [s1 + 120]\n  4440: a1 = u64 [s1 + 40]\n  4443: i64 a0 = a0 + a1\n  4446: a1 = u64 [s1 + 48]\n  4449: a1 = reverse a1\n  4451: a2 = u64 [s1 + 88]\n  4454: a2 = reverse a2\n  4456: a3 = u64 [s1 + 96]\n  4459: a3 = reverse a3\n  4461: a4 = u64 [s1 + 104]\n  4464: a4 = reverse a4\n  4466: u8 [a0 + 24] = a4\n  4469: a5 = a4 >>64 56\n  4472: u8 [a0 + 31] = a5\n  4475: a5 = a4 >>64 48\n  4478: u8 [a0 + 30] = a5\n  4481: a5 = a4 >>64 40\n  4484: u8 [a0 + 29] = a5\n  4487: a5 = a4 >>64 32\n  4490: u8 [a0 + 28] = a5\n  4493: a5 = a4 >>64 24\n  4496: u8 [a0 + 27] = a5\n  4499: a5 = a4 >>64 16\n  4502: u8 [a0 + 26] = a5\n  4505: a4 = a4 >>64 8\n  4508: u8 [a0 + 25] = a4\n  4511: u8 [a0 + 16] = a3\n  4514: a4 = a3 >>64 56\n  4517: u8 [a0 + 23] = a4\n  4520: a4 = a3 >>64 48\n  4523: u8 [a0 + 22] = a4\n  4526: a4 = a3 >>64 40\n  4529: u8 [a0 + 21] = a4\n  4532: a4 = a3 >>64 32\n  4535: u8 [a0 + 20] = a4\n  4538: a4 = a3 >>64 24\n  4541: u8 [a0 + 19] = a4\n  4544: a4 = a3 >>64 16\n  4547: u8 [a0 + 18] = a4\n  4550: a3 = a3 >>64 8\n  4553: u8 [a0 + 17] = a3\n  4556: u8 [a0 + 8] = a2\n  4559: a3 = a2 >>64 56\n  4562: u8 [a0 + 15] = a3\n  4565: a3 = a2 >>64 48\n  4568: u8 [a0 + 14] = a3\n  4571: a3 = a2 >>64 40\n  4574: u8 [a0 + 13] = a3\n  4577: a3 = a2 >>64 32\n  4580: u8 [a0 + 12] = a3\n  4583: a3 = a2 >>64 24\n  4586: u8 [a0 + 11] = a3\n  4589: a3 = a2 >>64 16\n  4592: u8 [a0 + 10] = a3\n  4595: a2 = a2 >>64 8\n  4598: u8 [a0 + 9] = a2\n  4601: u8 [a0] = a1\n  4603: a2 = a1 >>64 56\n  4606: u8 [a0 + 7] = a2\n  4609: a2 = a1 >>64 48\n  4612: u8 [a0 + 6] = a2\n  4615: a2 = a1 >>64 40\n  4618: u8 [a0 + 5] = a2\n  4621: a2 = a1 >>64 32\n  4624: u8 [a0 + 4] = a2\n  4627: a2 = a1 >>64 24\n  4630: u8 [a0 + 3] = a2\n  4633: a2 = a1 >>64 16\n  4636: u8 [a0 + 2] = a2\n  4639: a1 = a1 >>64 8\n  4642: u8 [a0 + 1] = a1\n  4645: a1 = 0x40\n  4648: a0 = u64 [s1 + 56]\n  4651: ra = 70, jump @0\n      : @122 [@dyn 35] (gas: 1)\n  4656: jump @101 if a0 == 0\n      : @123 (gas: 40)\n  4660: i64 a0 = i64 sp - i64 32\n  4663: a0 = a0 & 0xffffffe0\n  4666: sp = a0\n  4668: a1 = u64 [0x20000]\n  4673: a2 = u64 [0x20008]\n  4678: a3 = u64 [0x20010]\n  4683: a4 = u64 [0x20018]\n  4688: u64 [a0 + 24] = a1\n  4691: u64 [a0 + 16] = a2\n  4694: u64 [a0 + 8] = a3\n  4697: u64 [a0] = a4\n  4699: a2 = i32 [s1 + 112]\n  4702: a0 = a0 + 0x0\n  4704: a1 = 0x1\n  4707: a3 = 0x40\n  4710: ecalli 3 // 'deposit_event'\n  4712: i64 a0 = i64 sp - i64 32\n  4715: a0 = a0 & 0xffffffe0\n  4718: u64 [s1 + 112] = a0\n  4721: sp = a0\n  4723: a0 = a0 + 0x0\n  4725: ecalli 0 // 'balance'\n  4726: a3 = u64 [s1 + 112]\n  4729: a0 = u64 [a3]\n  4731: a1 = u64 [a3 + 8]\n  4734: a2 = u64 [a3 + 16]\n  4737: a3 = u64 [a3 + 24]\n  4740: a4 = u64 [s1 + 72]\n  4743: u64 [s1 + 328] = a4\n  4747: a4 = u64 [s1 + 80]\n  4750: u64 [s1 + 320] = a4\n  4754: a4 = u64 [s1 + 64]\n  4757: u32 [s1 + 336] = a4\n  4761: u64 [s1 + 376] = a3\n  4765: u64 [s1 + 368] = a2\n  4769: u64 [s1 + 360] = a1\n  4773: u64 [s1 + 352] = a0\n  4777: a0 = 0x0\n  4779: a1 = 0x0\n  4781: ra = 72, jump @0\n      : @124 [@dyn 36] (gas: 1)\n  4786: jump @101 if a0 == 0\n      : @125 (gas: 3)\n  4790: a0 = 0x0\n  4792: a1 = 0x0\n  4794: ra = 74, jump @0\n      : @126 [@dyn 37] (gas: 1)\n  4799: jump @101 if a0 == 0\n      : @127 (gas: 19)\n  4803: u32 [s1 + 384] = 0\n  4807: u32 [s1 + 416] = 8\n  4812: i64 a0 = i64 s1 + 0x140\n  4816: u64 [s1 + 420] = a0\n  4820: u64 [s1 + 432] = 0\n  4824: u64 [s1 + 424] = 0\n  4828: a0 = 0xffffffff\n  4838: u64 [s1 + 440] = a0\n  4842: i64 a0 = i64 s1 + 0x160\n  4846: u64 [s1 + 444] = a0\n  4850: a0 = u64 [s1 + 120]\n  4853: u64 [s1 + 448] = a0\n  4857: u32 [s1 + 452] = 0\n  4861: u64 [s1 + 456] = a0\n  4865: i64 a0 = i64 s1 + 0x180\n  4869: u64 [s1 + 460] = a0\n  4873: a0 = s1 + 0x1a0\n  4877: ecalli 1 // 'call'\n  4879: fallthrough\n      : @128 (gas: 1)\n  4880: jump @150 if a0 != 0\n      : @129 (gas: 2)\n  4884: a1 = 0x0\n  4886: ra = 76, jump @0\n      : @130 [@dyn 38] (gas: 1)\n  4891: jump @101 if a0 == 0\n      : @131 (gas: 5)\n  4895: a1 = i32 [s1 + 120]\n  4898: a0 = 0x0\n  4900: a2 = 0x0\n  4902: ecalli 9 // 'seal_return'\n  4904: fallthrough\n      : @132 (gas: 3)\n  4905: a0 = 0x40\n  4908: a1 = 0x20\n  4911: ra = 78, jump @0\n      : @133 [@dyn 39] (gas: 1)\n  4916: jump @101 if a0 == 0\n      : @134 (gas: 17)\n  4920: a3 = u64 [s1 + 120]\n  4923: a0 = u64 [a3 + 72]\n  4926: a1 = u64 [a3 + 64]\n  4929: a2 = u64 [a3 + 80]\n  4932: a3 = u64 [a3 + 88]\n  4935: a4 = reverse a0\n  4937: a5 = reverse a1\n  4939: a2 = reverse a2\n  4941: a3 = reverse a3\n  4943: a0 = a2 | a5\n  4946: a1 = a3 | a4\n  4949: a1 = a1 | a0\n  4952: a1 = a1 >>64 32\n  4955: a0 = a0 | a4\n  4958: a0 = a0 <<64 32\n  4961: a0 = a0 | a1\n  4964: jump @101 if a0 != 0\n      : @135 (gas: 8)\n  4968: u64 [s1 + 80] = a5\n  4971: u64 [s1 + 88] = a4\n  4974: u64 [s1 + 112] = a2\n  4977: a0 = a3 + 0x0\n  4979: a1 = 0x20\n  4982: u64 [s1 + 96] = a0\n  4985: u64 [s1 + 104] = a3\n  4988: ra = 80, jump @0\n      : @136 [@dyn 40] (gas: 1)\n  4993: jump @101 if a0 == 0\n      : @137 (gas: 45)\n  4997: a0 = u64 [s1 + 120]\n  5000: a5 = u64 [s1 + 96]\n  5003: i64 a2 = a0 + a5\n  5006: u8 [a2 + 31] = 0\n  5009: u8 [a2 + 30] = 0\n  5012: u8 [a2 + 29] = 0\n  5015: u8 [a2 + 28] = 0\n  5018: u8 [a2 + 27] = 0\n  5021: u8 [a2 + 26] = 0\n  5024: u8 [a2 + 25] = 0\n  5027: u8 [a2 + 24] = 0\n  5030: u8 [a2 + 23] = 0\n  5033: u8 [a2 + 22] = 0\n  5036: u8 [a2 + 21] = 0\n  5039: u8 [a2 + 20] = 0\n  5042: u8 [a2 + 19] = 0\n  5045: u8 [a2 + 18] = 0\n  5048: u8 [a2 + 17] = 0\n  5051: u8 [a2 + 16] = 0\n  5054: u8 [a2 + 15] = 0\n  5057: u8 [a2 + 14] = 0\n  5060: u8 [a2 + 13] = 0\n  5063: u8 [a2 + 12] = 0\n  5066: u8 [a2 + 11] = 0\n  5069: u8 [a2 + 10] = 0\n  5072: u8 [a2 + 9] = 0\n  5075: u8 [a2 + 8] = 0\n  5078: u8 [a2 + 7] = 0\n  5081: u8 [a2 + 6] = 0\n  5084: u8 [a2 + 5] = 0\n  5087: u8 [a2 + 4] = 0\n  5090: u8 [a2 + 3] = 160\n  5095: u8 [a2 + 2] = 121\n  5099: u8 [a2 + 1] = 195\n  5104: a1 = u64 [s1 + 88]\n  5107: a4 = u64 [s1 + 80]\n  5110: a4 = a4 | a1\n  5113: a1 = 0xfffffffc\n  5123: a3 = u64 [s1 + 104]\n  5126: a1 = a3 <u a1\n  5129: a3 = u64 [s1 + 112]\n  5132: a1 = 0 if a3 != 0\n  5134: a1 = 0 if a4 != 0\n  5136: u8 [a2 + 0] = 8\n  5139: jump @101 if a1 == 0\n      : @138 (gas: 6)\n  5143: u64 [s1 + 88] = a4\n  5146: u64 [s1 + 72] = a2\n  5149: a0 = a5 + 0x4\n  5152: a1 = 0x20\n  5155: u64 [s1 + 80] = a0\n  5158: ra = 82, jump @0\n      : @139 [@dyn 41] (gas: 1)\n  5163: jump @101 if a0 == 0\n      : @140 (gas: 43)\n  5167: a0 = u64 [s1 + 120]\n  5170: a1 = u64 [s1 + 80]\n  5173: i64 a0 = a0 + a1\n  5176: u8 [a0 + 31] = 32\n  5180: u8 [a0 + 30] = 0\n  5183: u8 [a0 + 29] = 0\n  5186: u8 [a0 + 28] = 0\n  5189: u8 [a0 + 27] = 0\n  5192: u8 [a0 + 26] = 0\n  5195: u8 [a0 + 25] = 0\n  5198: u8 [a0 + 24] = 0\n  5201: u8 [a0 + 23] = 0\n  5204: u8 [a0 + 22] = 0\n  5207: u8 [a0 + 21] = 0\n  5210: u8 [a0 + 20] = 0\n  5213: u8 [a0 + 19] = 0\n  5216: u8 [a0 + 18] = 0\n  5219: u8 [a0 + 17] = 0\n  5222: u8 [a0 + 16] = 0\n  5225: u8 [a0 + 15] = 0\n  5228: u8 [a0 + 14] = 0\n  5231: u8 [a0 + 13] = 0\n  5234: u8 [a0 + 12] = 0\n  5237: u8 [a0 + 11] = 0\n  5240: u8 [a0 + 10] = 0\n  5243: u8 [a0 + 9] = 0\n  5246: u8 [a0 + 8] = 0\n  5249: u8 [a0 + 7] = 0\n  5252: u8 [a0 + 6] = 0\n  5255: u8 [a0 + 5] = 0\n  5258: u8 [a0 + 4] = 0\n  5261: u8 [a0 + 3] = 0\n  5264: u8 [a0 + 2] = 0\n  5267: u8 [a0 + 1] = 0\n  5270: a1 = 0xffffffdc\n  5280: a2 = u64 [s1 + 104]\n  5283: a1 = a2 <u a1\n  5286: a2 = u64 [s1 + 112]\n  5289: a1 = 0 if a2 != 0\n  5291: a2 = u64 [s1 + 88]\n  5294: a1 = 0 if a2 != 0\n  5296: u8 [a0 + 0] = 0\n  5298: jump @101 if a1 == 0\n      : @141 (gas: 5)\n  5302: a0 = u64 [s1 + 96]\n  5305: a0 = a0 + 0x24\n  5308: a1 = 0x20\n  5311: u64 [s1 + 80] = a0\n  5314: ra = 84, jump @0\n      : @142 [@dyn 42] (gas: 1)\n  5319: jump @101 if a0 == 0\n      : @143 (gas: 43)\n  5323: a0 = u64 [s1 + 120]\n  5326: a1 = u64 [s1 + 80]\n  5329: i64 a0 = a0 + a1\n  5332: u8 [a0 + 31] = 20\n  5336: u8 [a0 + 30] = 0\n  5339: u8 [a0 + 29] = 0\n  5342: u8 [a0 + 28] = 0\n  5345: u8 [a0 + 27] = 0\n  5348: u8 [a0 + 26] = 0\n  5351: u8 [a0 + 25] = 0\n  5354: u8 [a0 + 24] = 0\n  5357: u8 [a0 + 23] = 0\n  5360: u8 [a0 + 22] = 0\n  5363: u8 [a0 + 21] = 0\n  5366: u8 [a0 + 20] = 0\n  5369: u8 [a0 + 19] = 0\n  5372: u8 [a0 + 18] = 0\n  5375: u8 [a0 + 17] = 0\n  5378: u8 [a0 + 16] = 0\n  5381: u8 [a0 + 15] = 0\n  5384: u8 [a0 + 14] = 0\n  5387: u8 [a0 + 13] = 0\n  5390: u8 [a0 + 12] = 0\n  5393: u8 [a0 + 11] = 0\n  5396: u8 [a0 + 10] = 0\n  5399: u8 [a0 + 9] = 0\n  5402: u8 [a0 + 8] = 0\n  5405: u8 [a0 + 7] = 0\n  5408: u8 [a0 + 6] = 0\n  5411: u8 [a0 + 5] = 0\n  5414: u8 [a0 + 4] = 0\n  5417: u8 [a0 + 3] = 0\n  5420: u8 [a0 + 2] = 0\n  5423: u8 [a0 + 1] = 0\n  5426: a1 = 0xffffffbc\n  5436: a2 = u64 [s1 + 104]\n  5439: a1 = a2 <u a1\n  5442: a2 = u64 [s1 + 112]\n  5445: a1 = 0 if a2 != 0\n  5447: a2 = u64 [s1 + 88]\n  5450: a1 = 0 if a2 != 0\n  5452: u8 [a0 + 0] = 0\n  5454: jump @101 if a1 == 0\n      : @144 (gas: 5)\n  5458: a0 = u64 [s1 + 96]\n  5461: a0 = a0 + 0x44\n  5464: a1 = 0x20\n  5467: u64 [s1 + 112] = a0\n  5470: ra = 86, jump @0\n      : @145 [@dyn 43] (gas: 1)\n  5475: jump @101 if a0 == 0\n      : @146 (gas: 38)\n  5479: a0 = u64 [s1 + 120]\n  5482: a1 = u64 [s1 + 112]\n  5485: i64 a0 = a0 + a1\n  5488: u8 [a0 + 31] = 0\n  5491: u8 [a0 + 30] = 0\n  5494: u8 [a0 + 29] = 0\n  5497: u8 [a0 + 28] = 0\n  5500: u8 [a0 + 27] = 0\n  5503: u8 [a0 + 26] = 0\n  5506: u8 [a0 + 25] = 0\n  5509: u8 [a0 + 24] = 0\n  5512: u8 [a0 + 23] = 0\n  5515: u8 [a0 + 22] = 0\n  5518: u8 [a0 + 21] = 0\n  5521: u8 [a0 + 20] = 0\n  5524: u8 [a0 + 19] = 114\n  5528: u8 [a0 + 18] = 101\n  5532: u8 [a0 + 17] = 110\n  5536: u8 [a0 + 16] = 119\n  5540: t0 = 0x6f\n  5543: u8 [a0 + 15] = t0\n  5546: a4 = 0x20\n  5549: u8 [a0 + 14] = a4\n  5552: u8 [a0 + 13] = 101\n  5556: u8 [a0 + 12] = 104\n  5560: u8 [a0 + 11] = 116\n  5564: u8 [a0 + 10] = a4\n  5567: u8 [a0 + 9] = 116\n  5571: a5 = 0x27\n  5574: u8 [a0 + 8] = a5\n  5577: u8 [a0 + 7] = 110\n  5581: u8 [a0 + 6] = 101\n  5585: u8 [a0 + 5] = 114\n  5589: u8 [a0 + 4] = 97\n  5593: u8 [a0 + 3] = a4\n  5596: u8 [a0 + 2] = 117\n  5600: u8 [a0 + 1] = t0\n  5603: fallthrough\n      : @147 (gas: 4)\n  5604: u8 [a0 + 0] = 89\n  5607: a1 = 0x64\n  5610: a0 = u64 [s1 + 96]\n  5613: ra = 88, jump @0\n      : @148 [@dyn 44] (gas: 1)\n  5618: jump @101 if a0 == 0\n      : @149 (gas: 5)\n  5622: a1 = i32 [s1 + 72]\n  5625: a0 = 0x1\n  5628: a2 = 0x64\n  5631: ecalli 9 // 'seal_return'\n  5633: fallthrough\n      : @150 (gas: 3)\n  5634: a0 = 0x40\n  5637: a1 = 0x20\n  5640: ra = 90, jump @0\n      : @151 [@dyn 45] (gas: 1)\n  5645: jump @101 if a0 == 0\n      : @152 (gas: 14)\n  5649: a2 = u64 [s1 + 120]\n  5652: a0 = u64 [a2 + 80]\n  5655: u64 [s1 + 112] = a0\n  5658: a0 = u64 [a2 + 72]\n  5661: a1 = u64 [a2 + 88]\n  5664: a2 = u64 [a2 + 64]\n  5667: u64 [s1 + 104] = a2\n  5670: a0 = reverse a0\n  5672: u64 [s1 + 96] = a0\n  5675: a0 = reverse a1\n  5677: u64 [s1 + 88] = a0\n  5680: a0 = s1 + 0x1e0\n  5684: ecalli 8 // 'return_data_size'\n  5686: fallthrough\n      : @153 (gas: 14)\n  5687: a0 = u64 [s1 + 88]\n  5690: a3 = a0\n  5692: a2 = u64 [s1 + 96]\n  5695: a0 = a0 | a2\n  5698: a1 = u64 [s1 + 112]\n  5701: a4 = u64 [s1 + 104]\n  5704: a1 = a1 | a4\n  5707: a1 = reverse a1\n  5709: a0 = a0 | a1\n  5712: a0 = a0 >>64 32\n  5715: a1 = a1 | a2\n  5718: a1 = a1 <<64 32\n  5721: a0 = a0 | a1\n  5724: jump @101 if a0 != 0\n      : @154 (gas: 13)\n  5728: a4 = u64 [s1 + 480]\n  5732: a0 = u64 [s1 + 504]\n  5736: a1 = u64 [s1 + 488]\n  5740: a2 = u64 [s1 + 496]\n  5744: a0 = a0 | a1\n  5747: u64 [s1 + 112] = a4\n  5750: a1 = a4 | a2\n  5753: a1 = a1 | a0\n  5756: a1 = a1 >>64 32\n  5759: a0 = a0 | a2\n  5762: a0 = a0 <<64 32\n  5765: a0 = a0 | a1\n  5768: jump @101 if a0 != 0\n      : @155 (gas: 5)\n  5772: a0 = a3 + 0x0\n  5774: a1 = i32 [s1 + 112]\n  5777: u64 [s1 + 104] = a0\n  5780: u64 [s1 + 96] = a1\n  5783: ra = 92, jump @0\n      : @156 [@dyn 46] (gas: 1)\n  5788: jump @101 if a0 == 0\n      : @157 (gas: 9)\n  5792: a0 = u64 [s1 + 112]\n  5795: u32 [s1 + 512] = a0\n  5799: a0 = u64 [s1 + 120]\n  5802: a1 = u64 [s1 + 104]\n  5805: a0 = a0 + a1\n  5808: a1 = s1 + 0x200\n  5812: a2 = 0x0\n  5814: ecalli 7 // 'return_data_copy'\n  5816: fallthrough\n      : @158 (gas: 3)\n  5817: a0 = i32 [s1 + 512]\n  5821: a1 = u64 [s1 + 96]\n  5824: jump @101 if a0 <u a1\n      : @159 (gas: 3)\n  5828: a0 = s1 + 0x220\n  5832: ecalli 8 // 'return_data_size'\n  5834: fallthrough\n      : @160 (gas: 12)\n  5835: a1 = u64 [s1 + 560]\n  5839: a2 = u64 [s1 + 568]\n  5843: a3 = u64 [s1 + 552]\n  5847: a0 = u64 [s1 + 544]\n  5851: a2 = a2 | a3\n  5854: a3 = a0 | a1\n  5857: a3 = a3 | a2\n  5860: a3 = a3 >>64 32\n  5863: a1 = a1 | a2\n  5866: a1 = a1 <<64 32\n  5869: a1 = a1 | a3\n  5872: jump @101 if a1 != 0\n      : @161 (gas: 4)\n  5876: a1 = a0 + 0x0\n  5878: a0 = u64 [s1 + 104]\n  5881: u64 [s1 + 112] = a1\n  5884: ra = 94, jump @0\n      : @162 [@dyn 47] (gas: 1)\n  5889: jump @101 if a0 == 0\n      : @163 (gas: 7)\n  5893: a0 = u64 [s1 + 120]\n  5896: a1 = u64 [s1 + 104]\n  5899: a1 = a1 + a0\n  5902: a0 = 0x1\n  5905: a2 = u64 [s1 + 112]\n  5908: ecalli 9 // 'seal_return'\n  5910: fallthrough\n      : @164 (gas: 7)\n  5911: a1 = i32 [s1 + 120]\n  5914: a0 = 0x1\n  5917: a2 = 0x0\n  5919: ecalli 9 // 'seal_return'\n  5921: a0 = 0x0\n  5923: ra = 0x60\n  5926: jump @12\n      : @165 [export #0: 'call'] (gas: 2)\n  5929: a0 = 0x0\n  5931: ra = 96, jump @12\n      : @166 [@dyn 48] [export #1: 'deploy'] (gas: 2)\n  5936: a0 = 0x1\n  5939: ra = 98, jump @12\n      : @167 [@dyn 49] (gas: 1)\n  5944: trap\n","bytecode":{"object":"50564d0000981b000000000000010700c16004c0004003202d5244bf59411b934e4382e28e3a5a2d685680c01195c951bf2ed60bd5b5965d0480bf0d00000000070000000b000000110000001e000000290000002e0000003100000041000000510000005c0000006e0000007900000062616c616e636563616c6c63616c6c65726465706f7369745f6576656e746765745f73746f72616765696e7075746e6f7772657475726e5f646174615f636f707972657475726e5f646174615f73697a657365616c5f72657475726e7365745f696d6d757461626c655f646174617365745f73746f7261676576616c75655f7472616e7366657272656405110297290463616c6c9730066465706c6f79069a87310297398100b300b800fc008b01a201c401de0154039003b003cf031c04c6046205fe05b906340748076c07d1080809460a930a3d0bd90b750c720de30d210edf0ed50f221051113012b212bf121b13341381132b14c7146315f2150d169c1601173017381752790e7a1004070f0a41040a0000012f8a3965980802871f1277e03b370000010a040713000a082000022978141607200002527804074000026587071300040740000265870713001300070918657909527a110b8b68880168ac0110ab52ca1e9cf413006811e05a10185a15105a16086815201211e0127601040704080610028360072800020d0100040407400003027702184e051163176203580403620350040362034804036007400403070607061004090610069506681100ff5a10f8005a15f0005a16e800681500011211e052165f085804035a68305f085004035a68285f084804035a68205f074004035a673804074004082006100809ff0707e5005b623868271f2427085b602065800924090a53880a5b6c2865ca0a24ca085b63306583041277e0687b8000247b0765790824980953770965a90924a9076547079d749d979d899dba040b280002600a800002600978000260077000020cc2080c30090c98086a88200cc9096999200c980860046800020f086b5a6b18016838040780005a681006100a7afe0707565b67186877800004084000035b691006100cadfe5b67381b77205b682056875b68305b69280c9808568707071a0407040806100e41fe07071d01681804070104094e09110407800004082006101027fe0f0704005b6a185ba798005ba890005ba988005baa80009d775a67309d875a67289d975a67389da75a67200267404e06115b64205b63285b62305b67585b68405b60505b6a481c470b2447075b693824900c54b70c1c3a07243a0a242808547a081c90070cb707547c0807087c015d16785d16705d16685d16606817e01277e052715a74185a79105a73085a72027a0268600409ff040b2004074e0b026780004e025b678800016890005b6980009d77697a209d886a88200ca8085a68386a77209d986989200c97075a67306a88205a68285d26b8005d26b0005d26a8005d26a000016817e01277e052715d17185d17105d17085d07527a5a67206817f81277e052715d17185d17105d17085d07000102aa027b0268a0000409ff04074e045b68206387145b88186977205b69280c97075d26d8005d26d0005d26c8005d26c000016819e01299e052915a98185a97105b67305a97085b67385a97029a0268c0000409ff040b2004074e0b040740040820061012b1fc07078dfe5b6a185ba7485ba8585ba9405baa509d7b9d870cb7080ca9099d990c98086a88200cb9096999200c98080f085ffe02775a673806101475fc070751fe0a0830000207080d040760040302774e0a115b6738040806101655fc070731fe5b67185b6838087808040704094e091104074004082006101836fc070712fe5b6a185ba7485ba8405ba9505baa589d7b9d8c9d999daa0cc9070cba080c78086a88200cb7076977200c87070f07e2fd5a6c105a6b205a693802a70408205a67285a6a3006101ae9fb0707c5fd5b67185b6c2865c7091a191f1a191e1a191d1a191c1a191b1a191a1a19191a19181a19171a19161a19151a19141a19131a19121a19111a19101a190f1a190e1a190d1a190c1a190b1a190a1a19091a19081a19071a19061a19051a19041a1903a0001a1902791a1901c3005b68205b6b100c8b0b7608fcffffff000000005b6a30248a085b6a3856a856b81a0908070833fd5a6b205a690802c7040408205a671006101c3ffb07071bfd5b67185b68106587071a171f201a171e1a171d1a171c1a171b1a171a1a17191a17181a17171a17161a17151a17141a17131a17121a17111a17101a170f1a170e1a170d1a170c1a170b1a170a1a17091a17081a17071a17061a17051a17041a17031a17021a17017608dcffffff000000005b69302489085b693856985b692056981a07070894fc5b67280277240408205a671006101ea3fa07077ffc5b67185b68106587071a171f231a171e1a171d1a171c1a171b1a171a1a17191a17181a17171a17161a17151a17141a17131a17121a17111a17101a170f1a170e1a170d1a170c1a170b1a170a1a17091a17081a17071a17061a17051a17041a17031a17021a17017608bcffffff000000005b69302489085b693856985b692056981a070708f8fb5b67280277440408205a671006102007fa0707e3fb5b67185b68106587071a171d661a1713621a1711641a171e751a170f751a171a681a170d681a170c731a171b651a1714651a170a651a17096d1a1716691a1708691a171f741a1719741a1707741a171c201a1718201a1715201a1712201a170b201a1706201a17056b1a1704631a170e6f1a17036f1a17106c1a17026c1a17176e1a17016e76089cffffff000000005b69302489085b693856985b692056981a075507083dfb5b67280277640408205a67380610224cf9070728fb5b67185b68386587071a171f1a171e1a171d1a171c1a171b1a171a1a17191a17181a17171a17161a17151a17141a17131a17121a17111a17101a170f1a170e1a170d1a170c1a170b1a170a1a17091a17081a17071a17061a17051a17041a17031a1702651a1701721a0775040884005b6728061024d1f80707adfa016808040701040984000400264e0911681180fd5a1078025a1570025a166802681580021211e0521604074004082006102899f807070a06040b2800025a6b786203780002620370000262036800027602000000000000008004034004035f084804035f094004035f075004035f0a580403278c1b99041f9901548c0927a8277c54a80c0c7a0a54ac0960028000020709a2055f074000039d776b772007475bcba58d240507470bd6cf3c3e010f47a31a1c2584055a63706817e01277e05a676852715d17185d17105d17085d0702774e0c115b6a685ba7105ba8185ba9085baa0c98080ca7070c87070f0747055b6a705ba75ba8185ba9085baa10687bfc247b0765790b68bbff1c9b0c249b0953c70968a7ff6579092479071ba90170980865870720070e055d2698005d2690005d2688005d2680006817e01277e052715d17185d17105d17085d07527a5a67706817f81277e052715d17185d17105d17085d07000102aa027b026880000409ff04074e045b67705b78185a68585b78105a68605b78085a68685b775a67700407800004082006102a34f70707a5045b67589d775b68609d885b69689d995b6a709daa5b6b785aba98005ab990005ab888005ab780000407800004082006102cfdf607076e045b67780278800004092004074e09115a63706817e01277e05a676852715d17185d17105d17085d0702774e0c115b6a685ba7105ba8185ba9085baa0c98080ca7070c87070f0719045b6a705ba75ba8185ba9085baa10687bfc247b0765790b68bbff1c9b0c249b0953c70968a7ff6579092479071ba9017098086587072007e0035d26b8005d26b0005d26a8005d26a0006817e01277e052715d17185d17105d17085d07527a5a67586817f81277e052715d17185d17105d17085d07000102aa027b0268a0000409ff04074e045b67585b785a68705b78085a68685b78105a68605b77185a67580267c0004e06115b67d8005b62c0005b69d0005b6ac8005b68581c870b2487085b676024790c54b80c5b68681c8a03248a0a5b6870248208543a081c97070cb707547c080708b70404074004082006102ebff5070730035b6a785ba7485ba8405ba9505baa589d7b9d8c9d999daa0cc9070cba080c78086a88200cb7076977200c87070f0700035a6c505a6b585a697002a70408205a67605a6a6806103072f50707e3025b67785b6c6065c7091a191f1a191e1a191d1a191c1a191b1a191a1a19191a19181a19171a19161a19151a19141a19131a19121a19111a19101a190f1a190e1a190d1a190c1a190b1a190a1a19091a19081a19071a19061a19051a19041a1903a0001a1902791a1901c3005b68585b6b500c8b0b7608fcffffff000000005b6a68248a085b6a7056a856b81a0908070851025a6b585a694802c7040408205a6750061032c8f4070739025b67785b68506587071a171f201a171e1a171d1a171c1a171b1a171a1a17191a17181a17171a17161a17151a17141a17131a17121a17111a17101a170f1a170e1a170d1a170c1a170b1a170a1a17091a17081a17071a17061a17051a17041a17031a17021a17017608dcffffff000000005b69682489085b697056985b695856981a070708b2015b67600277240408205a67500610342cf407079d015b67785b68506587071a171f161a171e1a171d1a171c1a171b1a171a1a17191a17181a17171a17161a17151a17141a17131a17121a17111a17101a170f1a170e1a170d1a170c1a170b1a170a1a17091a17081a17071a17061a17051a17041a17031a17021a17017608bcffffff000000005b69682489085b697056985b695856981a07070816015b67600277440408205a677006103690f3070701015b67785b68706587071a171f1a171e1a171d1a171c1a171b1a171a1a17191a17181a17171a17161a1715741a1714651a171379040c20107c121a1711771a1710611a170f721a170e641a170d681a170c74040b69107b0b1a170a77107c091a1708741a1707271a17066e1a1705611a170463107c031a1702751a17016f05ee085a63706817e01277e05a676852715d17185d17105d17085d0702774e0c115b6a685ba7105ba8185ba9085baa0c98080ca7070c87070f073b5b6a705ba75ba8185ba9085baa10687bfc247b0765790b68bbff1c9b0c249b0953c70968a7ff6579092479071ba9017098086587072d07110407040806103893f20f07a509005d2658025d2650025d2648025d264002016817e01277e052715d17185d17105d17085d07527a5a67706817f81277e052715d17185d17105d17085d07000102aa027b026840020409ff04074e045b68706387105a67605b87085a67685b875a677004074004082006103a22f20707935b6a785ba7485ba8585ba9405baa509d7b9d870cb7080ca9099d990c98086a88200cb9096999200c98080f0866ff02770408205a675806103ce4f1070755ff5b67785b6b5865b70c5b67609d775b68689d885b69709d9910c9181a1c0b1a1c0a1a1c091a1c071a1c061a1c051a1c041a1c031a1c021a1c011a0c6a9a3810ca1f6a9a3010ca1e6a9a2810ca1d6a9a2010ca1c6a9a1810ca1b6a9a1010ca1a6a990810c91910c8106a893810c9176a893010c9166a892810c9156a892010c9146a891810c9136a891010c9126a880810c81110c7086a783810c80f6a783010c80e6a782810c80d6a77205a6c7810c70c04082052b706103e26f1070797fe01687804092004074e09115d26f8005d26f0005d26e8005d26e000016817e01277e052715d17185d17105d17085d07527a5a67606817f81277e052715d17185d17105d17085d07000102aa027b0268e0000409ff04074e045b67605b78085a68705b785a68686377105a6760026700014e02115b6208015b6b0001636c10019d276a78209db9699a200ca8086977209dca6aaa200ca7076a99205b6a601ca9095b6a681ca7070c97075b69701c98080c87070f0794035a6c405a62485a6b506817e01277e05a6770527102774e5b68705b87185a67585b87105a67605b87085a67685b875a677004074004082006104030f00707a1fd5b6a785ba7485ba8405ba9505baa589d7b9d8c9d999daa0cc9070cba080c78086a88200cb7076977200c87070f0771fd5a6c185a6b205a69305a6a2802a70408205a6738061042e3ef070754fd5b67785b6c38657c0c5b67589d775b68609d885b69689d995b6a709daa10ca186aab3810cb1f6aab3010cb1e6aab2810cb1d6aab2010cb1c6aab1810cb1b6aab1010cb1a6aaa0810ca1910c9106a9a3810ca176a9a3010ca166a9a2810ca156a9a2010ca146a9a1810ca136a9a1010ca126a990810c91110c8086a893810c90f6a893010c90e6a892810c90d6a892010c90c6a891810c90b6a891010c90a6a880810c80910c76a783810c8076a783010c8066a782810c8056a782010c8046a781810c8036a781010c8026a77085a6c7010c701026720014e06115b67205b68180c87077608e0ffffff000000005b69282489085b693056985678070856fc5b6738015a67305b6730015a67585b6728015a67605b6720015a67685b67380277200408205a6728061044b4ee070725fc5b67785b68286587075b68309d885b69589d995b6a609daa5b6b689dbb107b186abc38107c1f6abc30107c1e6abc28107c1d6abc20107c1c6abc18107c1b6abc10107c1a6abb08107b19107a106aab38107b176aab30107b166aab28107b156aab20107b146aab18107b136aab10107b126aaa08107a111079086a9a38107a0f6a9a30107a0e6a9a28107a0d6a9a20107a0c6a9a18107a0b6a9a10107a0a6a990810790910786a89381079076a89301079066a89281079056a89201079046a89181079036a89101079026a88081078010408405b6738061046d5ed070746fb6817e01277e052715f080000025f090800025f0a1000025f0b1800025a78185a79105a7a085a7b0169700277040801040a404e036817e01277e05a6770527102774e5b6a705ba75ba8085ba9105baa185b6b485a6b48015b6b505a6b40015b6b40036b50015a6a78015a6970015a6868015a6760010407040806104853ed0707c4fa0407040806104a46ed0707b7fa0d2680010d26a00108686740015a67a4015d26b0015d26a8017607ffffffff000000005a67b801686760015a67bc015b67785a67c0010d26c4015a67c801686780015a67cc010267a0014e01110f07f202040806104ceaec07075bfa016878040704094e091104074004082006104ed1ec070742fa5b6a785ba7485ba8405ba9505baa589d7b9d8c9d999daa0cc9070cba080c78086a88200cb7076977200c87070f0712fa5a6c505a6b585a697002a70408205a67605a6a6806105084ec0707f5f95b67785b6c6065c7091a191f1a191e1a191d1a191c1a191b1a191a1a19191a19181a19171a19161a19151a19141a19131a19121a19111a19101a190f1a190e1a190d1a190c1a190b1a190a1a19091a19081a19071a19061a19051a19041a1903a0001a1902791a1901c3005b68585b6b500c8b0b7608fcffffff000000005b6a68248a085b6a7056a856b81a0908070863f95a6b585a694802c7040408205a6750061052daeb07074bf95b67785b68506587071a171f201a171e1a171d1a171c1a171b1a171a1a17191a17181a17171a17161a17151a17141a17131a17121a17111a17101a170f1a170e1a170d1a170c1a170b1a170a1a17091a17081a17071a17061a17051a17041a17031a17021a17017608dcffffff000000005b69682489085b697056985b695856981a070708c4f85b67600277240408205a67500610543eeb0707aff85b67785b68506587071a171f141a171e1a171d1a171c1a171b1a171a1a17191a17181a17171a17161a17151a17141a17131a17121a17111a17101a170f1a170e1a170d1a170c1a170b1a170a1a17091a17081a17071a17061a17051a17041a17031a17021a17017608bcffffff000000005b69682489085b697056985b695856981a07070828f85b67600277440408205a6770061056a2ea070713f85b67785b68706587071a171f1a171e1a171d1a171c1a171b1a171a1a17191a17181a17171a17161a17151a17141a1713721a1712651a17116e1a17107704026f10720f040b20107b0e1a170d651a170c681a170b74107b0a1a170974040c27107c081a17076e1a1706651a1705721a170461107b031a170275107201111a07590408645b676006105813ea070784f70168480407010409644e091104074004082006105af8e9070769f75b69785b97505a67705b97485b98585b99405a69689d775a67609d875a67580267e0014e08115b6758527a5b69600c97075b68705b6b680cb8089d880c87076a77200c98086988200c87070f071af75b6be0015b67f8015b68e8015b69f0010c87075a6b700c9b080c78086a88200c97076977200c87070f07eef602a70168705a67685a686006105c69e90707daf65b6770036700025b67785b68680887070268000204094e0711016700025b68602f87b6f6026720024e08115b6830025b6938025b6a28025b6720020ca9090c870a0c9a0a6aaa200c98086988200ca8080f0886f602785b67685a687006105e04e9070775f65b67785b68680878080407015b69704e091101687804070104094e090407040060053ee9040706106039e904070106106231e900a58424092a24145248252da99424492a42846a218490081111914242424292104992244992489224552184902449429248482224242949a990a446422622a29452d224499224499224912449492a494511514a9292241111929254929244452a499288084949928aa4921049924a4a92440911126a0a91a49a844892542549924852921049922449922449922449922444481240924a244942248924499224499224499224490248522a922444924892244992244992244992248024a522494224898888888888888888888888888888880092941249122249922449922449922449922422911049a411119192102121840042082194a492840825202020494a524d9292444a9224499224898888a42495a42451914a9224251222a5941211110991484d92925493a42491922449922449222222294925294954a452922489464424499224499248422449aa922449242949882449922449922449922449122224092049259224219244922449922449922449922401242915491222492449922449922449922449124092529124219224499224119144444424918888484492a424d5242949529224499224492ac4880849492a4949a222952429494892a4929224511222494a294992244949922449922449922449922449922485486a4484a42495a42451914a52926844949294244992249224a94992a4242192245549922492a424449294524a92244992244992244992244992244992942449922449a24902485211894422491222494a2925499224499224499224499224499224494a92244992240991144208494a49496a4a92482422222a4485881011114044242222a251885493104992aa244912494a12224992244992244992244992840849024852892449882491244992244992244992244900494a459284481249922449922449922449920490a45424498824499224491211912411914822221299244492262192244929d19424294912111149922451921089245123118d8848922451122249d2a44a0a090100"},"methodIdentifiers":{"owner()":"8da5cb5b","unlockTime()":"251c1aa3","withdraw()":"3ccfd60b"}},"hash":"9e9d6be62a3faf3f12491db96ca0bc0cb074581892309f938095a670888e6913","factoryDependencies":{}}}}